{
  "contractName": "EHRSupplychain",
  "abi": [
    {
      "anonymous": false,
      "inputs": [
        {
          "indexed": false,
          "internalType": "uint256",
          "name": "BathID",
          "type": "uint256"
        },
        {
          "indexed": false,
          "internalType": "address",
          "name": "byMan",
          "type": "address"
        }
      ],
      "name": "BatchAdded",
      "type": "event"
    },
    {
      "anonymous": false,
      "inputs": [
        {
          "indexed": false,
          "internalType": "address",
          "name": "medicalRecordID",
          "type": "address"
        },
        {
          "indexed": false,
          "internalType": "string",
          "name": "data",
          "type": "string"
        },
        {
          "indexed": false,
          "internalType": "uint256",
          "name": "hash",
          "type": "uint256"
        }
      ],
      "name": "MedicalRecordAdded",
      "type": "event"
    },
    {
      "anonymous": false,
      "inputs": [
        {
          "indexed": false,
          "internalType": "uint256",
          "name": "patientID",
          "type": "uint256"
        },
        {
          "indexed": false,
          "internalType": "string",
          "name": "name",
          "type": "string"
        },
        {
          "indexed": false,
          "internalType": "address",
          "name": "medicalHistoryID",
          "type": "address"
        }
      ],
      "name": "PatientAdded",
      "type": "event"
    },
    {
      "anonymous": false,
      "inputs": [
        {
          "indexed": false,
          "internalType": "address",
          "name": "acctAdd",
          "type": "address"
        },
        {
          "indexed": false,
          "internalType": "enum PharmaChain.Roles",
          "name": "_role",
          "type": "uint8"
        },
        {
          "indexed": false,
          "internalType": "string",
          "name": "_licNo",
          "type": "string"
        },
        {
          "indexed": false,
          "internalType": "string",
          "name": "_orgName",
          "type": "string"
        },
        {
          "indexed": false,
          "internalType": "uint256",
          "name": "totalBatch",
          "type": "uint256"
        }
      ],
      "name": "StakeHolderadded",
      "type": "event"
    },
    {
      "anonymous": false,
      "inputs": [
        {
          "indexed": false,
          "internalType": "address",
          "name": "manId",
          "type": "address"
        },
        {
          "indexed": false,
          "internalType": "uint256",
          "name": "BatchId",
          "type": "uint256"
        },
        {
          "indexed": false,
          "internalType": "uint256",
          "name": "price",
          "type": "uint256"
        },
        {
          "indexed": false,
          "internalType": "uint256",
          "name": "expDate",
          "type": "uint256"
        },
        {
          "indexed": false,
          "internalType": "uint256",
          "name": "mfgDate",
          "type": "uint256"
        },
        {
          "indexed": false,
          "internalType": "address",
          "name": "owner",
          "type": "address"
        },
        {
          "indexed": false,
          "internalType": "address[]",
          "name": "owners",
          "type": "address[]"
        }
      ],
      "name": "medicineAdded",
      "type": "event"
    },
    {
      "anonymous": false,
      "inputs": [
        {
          "indexed": false,
          "internalType": "address",
          "name": "_currentOwner",
          "type": "address"
        },
        {
          "indexed": false,
          "internalType": "address",
          "name": "_newOwner",
          "type": "address"
        },
        {
          "indexed": false,
          "internalType": "uint256",
          "name": "_batchId",
          "type": "uint256"
        }
      ],
      "name": "ownershipTransfer",
      "type": "event"
    },
    {
      "constant": false,
      "inputs": [
        {
          "internalType": "uint256",
          "name": "_shID",
          "type": "uint256"
        },
        {
          "internalType": "string",
          "name": "medname",
          "type": "string"
        }
      ],
      "name": "addBatch",
      "outputs": [],
      "payable": false,
      "stateMutability": "nonpayable",
      "type": "function"
    },
    {
      "constant": false,
      "inputs": [
        {
          "internalType": "string",
          "name": "_data",
          "type": "string"
        },
        {
          "internalType": "address",
          "name": "medicalRecordAdd",
          "type": "address"
        },
        {
          "internalType": "address",
          "name": "patientAdd",
          "type": "address"
        }
      ],
      "name": "addMedicalRecord",
      "outputs": [],
      "payable": false,
      "stateMutability": "nonpayable",
      "type": "function"
    },
    {
      "constant": false,
      "inputs": [
        {
          "internalType": "uint256",
          "name": "_shID",
          "type": "uint256"
        },
        {
          "internalType": "uint256",
          "name": "_bId",
          "type": "uint256"
        },
        {
          "internalType": "uint256",
          "name": "BatchId",
          "type": "uint256"
        },
        {
          "internalType": "uint256",
          "name": "price",
          "type": "uint256"
        },
        {
          "internalType": "uint256",
          "name": "_expDate",
          "type": "uint256"
        },
        {
          "internalType": "uint256",
          "name": "_mfgDate",
          "type": "uint256"
        }
      ],
      "name": "addMedicine",
      "outputs": [],
      "payable": false,
      "stateMutability": "nonpayable",
      "type": "function"
    },
    {
      "constant": false,
      "inputs": [
        {
          "internalType": "address",
          "name": "_acctAdd",
          "type": "address"
        },
        {
          "internalType": "enum PharmaChain.Roles",
          "name": "_role",
          "type": "uint8"
        },
        {
          "internalType": "string",
          "name": "_licNo",
          "type": "string"
        },
        {
          "internalType": "string",
          "name": "_orgName",
          "type": "string"
        }
      ],
      "name": "addParticipant",
      "outputs": [],
      "payable": false,
      "stateMutability": "nonpayable",
      "type": "function"
    },
    {
      "constant": false,
      "inputs": [
        {
          "internalType": "string",
          "name": "_name",
          "type": "string"
        }
      ],
      "name": "addPatient",
      "outputs": [],
      "payable": false,
      "stateMutability": "nonpayable",
      "type": "function"
    },
    {
      "constant": true,
      "inputs": [
        {
          "internalType": "address",
          "name": "",
          "type": "address"
        },
        {
          "internalType": "uint256",
          "name": "",
          "type": "uint256"
        }
      ],
      "name": "batches",
      "outputs": [
        {
          "internalType": "uint256",
          "name": "BatchId",
          "type": "uint256"
        },
        {
          "internalType": "uint256",
          "name": "Qty",
          "type": "uint256"
        },
        {
          "internalType": "uint256",
          "name": "batchId",
          "type": "uint256"
        }
      ],
      "payable": false,
      "stateMutability": "view",
      "type": "function"
    },
    {
      "constant": true,
      "inputs": [
        {
          "internalType": "address",
          "name": "_manAdd",
          "type": "address"
        },
        {
          "internalType": "uint256",
          "name": "_id",
          "type": "uint256"
        }
      ],
      "name": "getBatches",
      "outputs": [
        {
          "components": [
            {
              "internalType": "uint256",
              "name": "BatchId",
              "type": "uint256"
            },
            {
              "internalType": "uint256",
              "name": "Qty",
              "type": "uint256"
            },
            {
              "internalType": "uint256",
              "name": "batchId",
              "type": "uint256"
            }
          ],
          "internalType": "struct PharmaChain.Batch",
          "name": "",
          "type": "tuple"
        }
      ],
      "payable": false,
      "stateMutability": "view",
      "type": "function"
    },
    {
      "constant": true,
      "inputs": [
        {
          "internalType": "uint256",
          "name": "_bid",
          "type": "uint256"
        }
      ],
      "name": "getHistory",
      "outputs": [
        {
          "internalType": "address[]",
          "name": "",
          "type": "address[]"
        }
      ],
      "payable": false,
      "stateMutability": "view",
      "type": "function"
    },
    {
      "constant": true,
      "inputs": [
        {
          "internalType": "address",
          "name": "_patientAddress",
          "type": "address"
        }
      ],
      "name": "getMedicalRecord",
      "outputs": [
        {
          "components": [
            {
              "internalType": "address",
              "name": "medicalRecordID",
              "type": "address"
            },
            {
              "internalType": "bool",
              "name": "exists",
              "type": "bool"
            },
            {
              "internalType": "string",
              "name": "data",
              "type": "string"
            },
            {
              "internalType": "uint256",
              "name": "hash",
              "type": "uint256"
            }
          ],
          "internalType": "struct HealthRecordSystem.MedicalRecord[]",
          "name": "",
          "type": "tuple[]"
        }
      ],
      "payable": false,
      "stateMutability": "view",
      "type": "function"
    },
    {
      "constant": true,
      "inputs": [
        {
          "internalType": "address",
          "name": "_patientAddress",
          "type": "address"
        }
      ],
      "name": "getPatient",
      "outputs": [
        {
          "components": [
            {
              "internalType": "uint256",
              "name": "patientID",
              "type": "uint256"
            },
            {
              "internalType": "string",
              "name": "name",
              "type": "string"
            },
            {
              "internalType": "address",
              "name": "medicalHistoryID",
              "type": "address"
            },
            {
              "internalType": "bool",
              "name": "exists",
              "type": "bool"
            }
          ],
          "internalType": "struct HealthRecordSystem.Patient",
          "name": "",
          "type": "tuple"
        }
      ],
      "payable": false,
      "stateMutability": "view",
      "type": "function"
    },
    {
      "constant": true,
      "inputs": [
        {
          "internalType": "uint256",
          "name": "_id",
          "type": "uint256"
        }
      ],
      "name": "getStakeHolder",
      "outputs": [
        {
          "components": [
            {
              "internalType": "address",
              "name": "acctAdd",
              "type": "address"
            },
            {
              "internalType": "enum PharmaChain.Roles",
              "name": "role",
              "type": "uint8"
            },
            {
              "internalType": "string",
              "name": "licNo",
              "type": "string"
            },
            {
              "internalType": "string",
              "name": "orgName",
              "type": "string"
            },
            {
              "internalType": "uint256",
              "name": "totalBatch",
              "type": "uint256"
            }
          ],
          "internalType": "struct PharmaChain.StakeHolder",
          "name": "",
          "type": "tuple"
        }
      ],
      "payable": false,
      "stateMutability": "view",
      "type": "function"
    },
    {
      "constant": true,
      "inputs": [],
      "name": "medicalRecordCount",
      "outputs": [
        {
          "internalType": "uint256",
          "name": "",
          "type": "uint256"
        }
      ],
      "payable": false,
      "stateMutability": "view",
      "type": "function"
    },
    {
      "constant": true,
      "inputs": [
        {
          "internalType": "address",
          "name": "",
          "type": "address"
        },
        {
          "internalType": "uint256",
          "name": "",
          "type": "uint256"
        }
      ],
      "name": "medicalRecords",
      "outputs": [
        {
          "internalType": "address",
          "name": "medicalRecordID",
          "type": "address"
        },
        {
          "internalType": "bool",
          "name": "exists",
          "type": "bool"
        },
        {
          "internalType": "string",
          "name": "data",
          "type": "string"
        },
        {
          "internalType": "uint256",
          "name": "hash",
          "type": "uint256"
        }
      ],
      "payable": false,
      "stateMutability": "view",
      "type": "function"
    },
    {
      "constant": true,
      "inputs": [
        {
          "internalType": "uint256",
          "name": "",
          "type": "uint256"
        },
        {
          "internalType": "uint256",
          "name": "",
          "type": "uint256"
        }
      ],
      "name": "medicines",
      "outputs": [
        {
          "internalType": "address",
          "name": "manId",
          "type": "address"
        },
        {
          "internalType": "uint256",
          "name": "BatchId",
          "type": "uint256"
        },
        {
          "internalType": "uint256",
          "name": "price",
          "type": "uint256"
        },
        {
          "internalType": "uint256",
          "name": "expDate",
          "type": "uint256"
        },
        {
          "internalType": "uint256",
          "name": "mfgDate",
          "type": "uint256"
        },
        {
          "internalType": "address",
          "name": "owner",
          "type": "address"
        }
      ],
      "payable": false,
      "stateMutability": "view",
      "type": "function"
    },
    {
      "constant": false,
      "inputs": [
        {
          "internalType": "address",
          "name": "_currentOwner",
          "type": "address"
        },
        {
          "internalType": "address",
          "name": "_newOwner",
          "type": "address"
        },
        {
          "internalType": "uint256",
          "name": "_batchId",
          "type": "uint256"
        }
      ],
      "name": "ownerTransfer",
      "outputs": [],
      "payable": false,
      "stateMutability": "nonpayable",
      "type": "function"
    },
    {
      "constant": true,
      "inputs": [],
      "name": "patientCount",
      "outputs": [
        {
          "internalType": "uint256",
          "name": "",
          "type": "uint256"
        }
      ],
      "payable": false,
      "stateMutability": "view",
      "type": "function"
    },
    {
      "constant": true,
      "inputs": [
        {
          "internalType": "address",
          "name": "",
          "type": "address"
        }
      ],
      "name": "patients",
      "outputs": [
        {
          "internalType": "uint256",
          "name": "patientID",
          "type": "uint256"
        },
        {
          "internalType": "string",
          "name": "name",
          "type": "string"
        },
        {
          "internalType": "address",
          "name": "medicalHistoryID",
          "type": "address"
        },
        {
          "internalType": "bool",
          "name": "exists",
          "type": "bool"
        }
      ],
      "payable": false,
      "stateMutability": "view",
      "type": "function"
    },
    {
      "constant": true,
      "inputs": [],
      "name": "stakeHolderCount",
      "outputs": [
        {
          "internalType": "uint256",
          "name": "",
          "type": "uint256"
        }
      ],
      "payable": false,
      "stateMutability": "view",
      "type": "function"
    },
    {
      "constant": true,
      "inputs": [
        {
          "internalType": "uint256",
          "name": "",
          "type": "uint256"
        }
      ],
      "name": "stakeHolders",
      "outputs": [
        {
          "internalType": "address",
          "name": "acctAdd",
          "type": "address"
        },
        {
          "internalType": "enum PharmaChain.Roles",
          "name": "role",
          "type": "uint8"
        },
        {
          "internalType": "string",
          "name": "licNo",
          "type": "string"
        },
        {
          "internalType": "string",
          "name": "orgName",
          "type": "string"
        },
        {
          "internalType": "uint256",
          "name": "totalBatch",
          "type": "uint256"
        }
      ],
      "payable": false,
      "stateMutability": "view",
      "type": "function"
    },
    {
      "constant": true,
      "inputs": [
        {
          "internalType": "address",
          "name": "",
          "type": "address"
        }
      ],
      "name": "stakeholders",
      "outputs": [
        {
          "internalType": "address",
          "name": "acctAdd",
          "type": "address"
        },
        {
          "internalType": "enum PharmaChain.Roles",
          "name": "role",
          "type": "uint8"
        },
        {
          "internalType": "string",
          "name": "licNo",
          "type": "string"
        },
        {
          "internalType": "string",
          "name": "orgName",
          "type": "string"
        },
        {
          "internalType": "uint256",
          "name": "totalBatch",
          "type": "uint256"
        }
      ],
      "payable": false,
      "stateMutability": "view",
      "type": "function"
    },
    {
      "constant": false,
      "inputs": [
        {
          "internalType": "address",
          "name": "_patientAddress",
          "type": "address"
        },
        {
          "internalType": "string",
          "name": "_data",
          "type": "string"
        },
        {
          "internalType": "uint256",
          "name": "_medID",
          "type": "uint256"
        }
      ],
      "name": "updateMedicalRecord",
      "outputs": [],
      "payable": false,
      "stateMutability": "nonpayable",
      "type": "function"
    },
    {
      "constant": false,
      "inputs": [
        {
          "internalType": "address",
          "name": "patient",
          "type": "address"
        },
        {
          "internalType": "uint256",
          "name": "medicationInstanceID",
          "type": "uint256"
        },
        {
          "internalType": "string",
          "name": "_data",
          "type": "string"
        },
        {
          "internalType": "address",
          "name": "manAdd",
          "type": "address"
        },
        {
          "internalType": "uint256",
          "name": "batchID",
          "type": "uint256"
        }
      ],
      "name": "linkHealthRecordToMedication",
      "outputs": [],
      "payable": false,
      "stateMutability": "nonpayable",
      "type": "function"
    },
    {
      "constant": true,
      "inputs": [
        {
          "internalType": "uint256",
          "name": "medicationInstanceID",
          "type": "uint256"
        },
        {
          "internalType": "address",
          "name": "patientadd",
          "type": "address"
        }
      ],
      "name": "verifyMedicationOrigin",
      "outputs": [
        {
          "internalType": "bool",
          "name": "",
          "type": "bool"
        }
      ],
      "payable": false,
      "stateMutability": "view",
      "type": "function"
    },
    {
      "constant": false,
      "inputs": [
        {
          "internalType": "address",
          "name": "patient",
          "type": "address"
        },
        {
          "internalType": "string",
          "name": "_data",
          "type": "string"
        },
        {
          "internalType": "uint256",
          "name": "medicationInstanceID",
          "type": "uint256"
        }
      ],
      "name": "updateHealthRecord",
      "outputs": [],
      "payable": false,
      "stateMutability": "nonpayable",
      "type": "function"
    }
  ],
  "bytecode": "0x600060048190556007608090815266546573746f6f3160c81b60a052610100604052600560c09081526420b236b4b760d91b60e0526200004c92339290916001600160e01b03620000c816565b6200007b60006040518060400160405280600481526020016315195cdd60e21b815250620002a760201b60201c565b336000908152600260205260408120805482906200009557fe5b600091825260208220600390910201549150620000c1908083600180806001600160e01b036200043616565b5062000d1d565b620000d262000709565b6040518060a00160405280866001600160a01b03168152602001856007811115620000f957fe5b815260208082018690526040808301869052600060609093018390526004548352828252909120825181546001600160a01b0319166001600160a01b03909116178082559183015192935083929091829060ff60a01b1916600160a01b8360078111156200016357fe5b0217905550604082015180516200018591600184019160209091019062000739565b5060608201518051620001a391600284019160209091019062000739565b50608091909101516003909101556001600160a01b038581166000908152600160209081526040909120835181546001600160a01b03191693169290921780835590830151839291829060ff60a01b1916600160a01b8360078111156200020657fe5b0217905550604082015180516200022891600184019160209091019062000739565b50606082015180516200024691600284019160209091019062000739565b50608091909101516003909101556004805460010190556040517fe877405d40b6278a753d8816f6aca4c9a908238e8bd4f27a51376e4f72c4a1ff906200029890879087908790879060009062000afe565b60405180910390a15050505050565b60008083815260208190526040902054600160a01b900460ff166007811115620002cd57fe5b14620002f65760405162461bcd60e51b8152600401620002ed9062000c24565b60405180910390fd5b60008281526020818152604080832090516200031b9260019092019185910162000bde565b60405160208183030381529060405280519060200120905060006200034682620006c460201b60201c565b600085815260208181526040808320546001600160a01b03168352600290915290205490915062000376620007be565b5060408051606081018252838152600060208083018281528385018681528a845283835285842080546001600160a01b03908116865260028086528887208054600181810183559189528789208a516003928302909101908155965187830155945195909101949094558c86529490935282018054909101905554925191927fc6fdee6a6ac8e97bb4ceea768bcc0b008d23dd2da36f5637ece378e8cb9abb4f9262000426928792169062000c4e565b60405180910390a1505050505050565b60008087815260208190526040902054600160a01b900460ff1660078111156200045c57fe5b146200047c5760405162461bcd60e51b8152600401620002ed9062000c3c565b6040805160018082528183019092526060916020808301908038833950505060008881526020819052604081205482519293506001600160a01b031691839190620004c357fe5b60200260200101906001600160a01b031690816001600160a01b031681525050620004ed620007df565b506040805160e08101825260008981526020818152838220546001600160a01b03168084528184018a9052838501899052606084018890526080840187905260a0840181905260c08401869052825260029052918220805491926003929091908a9081106200055857fe5b6000918252602080832060039283020154845283810194909452604092830182208054600181810180845592855293869020875160079092020180546001600160a01b039283166001600160a01b031991821617825588880151958201959095559487015160028601556060870151928501929092556080860151600485015560a086015160058501805491909316931692909217905560c0840151805191938593926200060d92600685019201906200082e565b505050600089815260208181526040808320546001600160a01b03168352600290915290208054909150889081106200064257fe5b600091825260208083206001600390930201820180549092019091558982528190526040908190205490517fea2e0da97934b93ad70759075b5f9c0bd5f2d7f9d28389cb1e13efb3eddf4f1991620006b2916001600160a01b0390911690899089908990899085908a9062000b62565b60405180910390a15050505050505050565b600080805b6020811015620007005780600101602060ff160360080260020a848260208110620006f057fe5b1a029190910190600101620006c9565b5090505b919050565b6040805160a081019091526000808252602082019081526020016060815260200160608152602001600081525090565b828054600181600116156101000203166002900490600052602060002090601f016020900481019282601f106200077c57805160ff1916838001178555620007ac565b82800160010185558215620007ac579182015b82811115620007ac5782518255916020019190600101906200078f565b50620007ba92915062000894565b5090565b60405180606001604052806000815260200160008152602001600081525090565b6040518060e0016040528060006001600160a01b031681526020016000815260200160008152602001600081526020016000815260200160006001600160a01b03168152602001606081525090565b82805482825590600052602060002090810192821562000886579160200282015b828111156200088657825182546001600160a01b0319166001600160a01b039091161782556020909201916001909101906200084f565b50620007ba929150620008b4565b620008b191905b80821115620007ba57600081556001016200089b565b90565b620008b191905b80821115620007ba5780546001600160a01b0319168155600101620008bb565b6000620008e98383620008f1565b505060200190565b620008fc8162000c93565b82525050565b60006200090f8262000c86565b6200091b818562000c8a565b9350620009288362000c74565b8060005b838110156200095c578151620009438882620008db565b9750620009508362000c74565b9250506001016200092c565b509495945050505050565b620008fc8162000cb8565b620008fc8162000cc5565b60006200098a8262000c86565b62000996818562000c8a565b9350620009a881856020860162000cd2565b620009b38162000d05565b9093019392505050565b600081546001811660008114620009dd576001811462000a065762000a4b565b607f6002830416620009f0818762000c8a565b60ff198416815295505060208501925062000a4b565b6002820462000a16818762000c8a565b955062000a238562000c7a565b60005b8281101562000a445781548882015260019091019060200162000a26565b8701945050505b505092915050565b600062000a6260018362000c8a565b600160fd1b815260200192915050565b600062000a81601f8362000c8a565b7f4f6e6c79204d616e7566616374657265722063616e2061646420426174636800815260200192915050565b600062000abc60228362000c8a565b7f4f6e6c79204d616e7566616374657265722063616e20616464206d65646963698152616e6560f01b602082015260400192915050565b620008fc81620008b1565b60a0810162000b0e8288620008f1565b62000b1d602083018762000967565b818103604083015262000b3181866200097d565b9050818103606083015262000b4781856200097d565b905062000b58608083018462000972565b9695505050505050565b60e0810162000b72828a620008f1565b62000b81602083018962000af3565b62000b90604083018862000af3565b62000b9f606083018762000af3565b62000bae608083018662000af3565b62000bbd60a0830185620008f1565b81810360c083015262000bd1818462000902565b9998505050505050505050565b6060808252810162000bf18185620009bd565b9050818103602083015262000c068162000a53565b9050818103604083015262000c1c81846200097d565b949350505050565b6020808252810162000c368162000a72565b92915050565b6020808252810162000c368162000aad565b6040810162000c5e828562000af3565b62000c6d6020830184620008f1565b9392505050565b60200190565b60009081526020902090565b5190565b90815260200190565b600062000c368262000cac565b80620007048162000d0f565b6001600160a01b031690565b600062000c368262000ca0565b600062000c3682620008b1565b60005b8381101562000cef57818101518382015260200162000cd5565b8381111562000cff576000848401525b50505050565b601f01601f191690565b6008811062000d1a57fe5b50565b612ecf8062000d2d6000396000f3fe608060405234801561001057600080fd5b50600436106101585760003560e01c8063a1291f7f116100c3578063d09a888a1161007c578063d09a888a1461033b578063d6dd9d4d1461035b578063decef1c214610363578063ec27a39714610376578063f99f55aa14610389578063fb87cf94146103a957610158565b8063a1291f7f1461029e578063acad41a4146102b1578063b5368e20146102d5578063c07cfca9146102f5578063c581b45f14610308578063c8691b2a1461031b57610158565b806387f514081161011557806387f51408146102185780638d07df8f146102385780639090de481461024b578063911867541461025e57806397678a0314610273578063a0303c411461029657610158565b80630257c6e51461015d57806305a3b4f2146101725780630869cfbc146101855780632fea1a6f146101b157806349d33817146101d15780636aafa5e9146101f6575b600080fd5b61017061016b366004612379565b6103bc565b005b6101706101803660046121a8565b610646565b610198610193366004612020565b61072c565b6040516101a89493929190612ce5565b60405180910390f35b6101c46101bf366004612020565b6107ef565b6040516101a89190612b96565b6101e46101df36600461235a565b610968565b6040516101a896959493929190612abd565b61020961020436600461216e565b6109c7565b6040516101a893929190612d21565b61022b6102263660046122e2565b610a06565b6040516101a89190612ba7565b610170610246366004612312565b610a93565b61017061025936600461226a565b610c07565b610266610f76565b6040516101a89190612c8d565b61028661028136600461216e565b610f7c565b6040516101a8949392919061299f565b61026661105e565b6101706102ac366004612046565b611064565b6102c46102bf3660046122c4565b611333565b6040516101a8959493929190612a3e565b6102e86102e3366004612020565b611488565b6040516101a89190612c6b565b6102c4610303366004612020565b611599565b610170610316366004612124565b611621565b61032e6103293660046122c4565b611631565b6040516101a89190612b85565b61034e61034936600461216e565b6116bc565b6040516101a89190612c5d565b610266611727565b610170610371366004612124565b61172d565b610170610384366004612093565b6118fa565b61039c6103973660046122c4565b611abb565b6040516101a89190612c7c565b6101706103b7366004612235565b611c58565b60008087815260208190526040902054600160a01b900460ff1660078111156103e157fe5b146104075760405162461bcd60e51b81526004016103fe90612c4d565b60405180910390fd5b6040805160018082528183019092526060916020808301908038833950505060008881526020819052604081205482519293506001600160a01b03169183919061044d57fe5b60200260200101906001600160a01b031690816001600160a01b031681525050610475611d85565b506040805160e08101825260008981526020818152838220546001600160a01b03168084528184018a9052838501899052606084018890526080840187905260a0840181905260c08401869052825260029052918220805491926003929091908a9081106104df57fe5b6000918252602080832060039283020154845283810194909452604092830182208054600181810180845592855293869020875160079092020180546001600160a01b039283166001600160a01b031991821617825588880151958201959095559487015160028601556060870151928501929092556080860151600485015560a086015160058501805491909316931692909217905560c0840151805191938593926105929260068501920190611dd4565b505050600089815260208181526040808320546001600160a01b03168352600290915290208054909150889081106105c657fe5b600091825260208083206001600390930201820180549092019091558982528190526040908190205490517fea2e0da97934b93ad70759075b5f9c0bd5f2d7f9d28389cb1e13efb3eddf4f1991610634916001600160a01b0390911690899089908990899085908a90612b17565b60405180910390a15050505050505050565b6001600160a01b038516600090815260056020526040902060020154600160a01b900460ff166106885760405162461bcd60e51b81526004016103fe90612c3d565b6001600160a01b03851660009081526006602052604090208054859081106106ac57fe5b6000918252602090912060039091020154600160a01b900460ff166106e35760405162461bcd60e51b81526004016103fe90612bfd565b6001600160a01b038216600090815260026020526040902054811061071a5760405162461bcd60e51b81526004016103fe90612bed565b610725858486611621565b5050505050565b6005602090815260009182526040918290208054600180830180548651600293821615610100026000190190911692909204601f8101869004860283018601909652858252919492939092908301828280156107c95780601f1061079e576101008083540402835291602001916107c9565b820191906000526020600020905b8154815290600101906020018083116107ac57829003601f168201915b505050600290930154919250506001600160a01b0381169060ff600160a01b9091041684565b6001600160a01b038116600090815260056020526040902060020154606090600160a01b900460ff166108345760405162461bcd60e51b81526004016103fe90612c3d565b6001600160a01b038216600090815260066020908152604080832080548251818502810185019093528083529193909284015b8282101561095c576000848152602090819020604080516080810182526003860290920180546001600160a01b0381168452600160a01b900460ff16151583850152600180820180548451600261010094831615949094026000190190911692909204601f810187900487028301870185528083529495929493860193919290919083018282801561093a5780601f1061090f5761010080835404028352916020019161093a565b820191906000526020600020905b81548152906001019060200180831161091d57829003601f168201915b5050505050815260200160028201548152505081526020019060010190610867565b5050505090505b919050565b6003602052816000526040600020818154811061098157fe5b60009182526020909120600790910201805460018201546002830154600384015460048501546005909501546001600160a01b0394851697509295509093909290911686565b600260205281600052604060002081815481106109e057fe5b600091825260209091206003909102018054600182015460029092015490935090915083565b6001600160a01b0381166000908152600660205260408120805484908110610a2a57fe5b6000918252602090912060039091020154600160a01b900460ff16610a615760405162461bcd60e51b81526004016103fe90612bfd565b6001600160a01b038216600090815260066020526040902054831015610a8957506001610a8d565b5060005b92915050565b60008083815260208190526040902054600160a01b900460ff166007811115610ab857fe5b14610ad55760405162461bcd60e51b81526004016103fe90612c0d565b6000828152602081815260408083209051610af892600190920191859101612bb5565b6040516020818303038152906040528051906020012090506000610b1b82611d45565b600085815260208181526040808320546001600160a01b031683526002909152902054909150610b49611e39565b5060408051606081018252838152600060208083018281528385018681528a845283835285842080546001600160a01b03908116865260028086528887208054600181810183559189528789208a516003928302909101908155965187830155945195909101949094558c86529490935282018054909101905554925191927fc6fdee6a6ac8e97bb4ceea768bcc0b008d23dd2da36f5637ece378e8cb9abb4f92610bf79287921690612c9b565b60405180910390a1505050505050565b33600090815260056020526040902060020154600160a01b900460ff16610c405760405162461bcd60e51b81526004016103fe90612c3d565b600533600090815260016020526040902054600160a01b900460ff166007811115610c6757fe5b1480610c975750600633600090815260016020526040902054600160a01b900460ff166007811115610c9557fe5b145b80610cc65750600433600090815260016020526040902054600160a01b900460ff166007811115610cc457fe5b145b610ce25760405162461bcd60e51b81526004016103fe90612c2d565b610cea611e5a565b604080516080810182526001600160a01b03808616825260016020808401919091528284018890523360009081526005825284902060020154935192936060850193610d3d93919091169189910161295b565b60408051601f19818403018152919052805160209091012090529050600533600090815260016020526040902054600160a01b900460ff166007811115610d8057fe5b1415610e29576001600160a01b03821660009081526006602052604090206008548154839291908110610daf57fe5b600091825260209182902083516003909202018054848401511515600160a01b0260ff60a01b196001600160a01b039094166001600160a01b03199092169190911792909216919091178155604083015180519192610e1692600185019290910190611e8d565b5060608201518160020155905050610ebf565b3360009081526006602052604090206008548154839291908110610e4957fe5b600091825260209182902083516003909202018054848401511515600160a01b0260ff60a01b196001600160a01b039094166001600160a01b03199092169190911792909216919091178155604083015180519192610eb092600185019290910190611e8d565b50606082015181600201559050505b600880546001810190915533600090815260066020526040902080547f454d8a558d144cd4e41c936f2111bc09adccc2598dc304f6fbde1f22a4e391a792908110610f0657fe5b600091825260208083206003909202909101543383526006909152604090912060085481546001600160a01b039093169288929160001901908110610f4757fe5b906000526020600020906003020160020154604051610f6893929190612a8e565b60405180910390a150505050565b60085481565b60066020528160005260406000208181548110610f9557fe5b60009182526020918290206003919091020180546001808301805460408051600261010095841615959095026000190190921693909304601f81018790048702820187019093528281526001600160a01b0384169750600160a01b90930460ff169550929391929183018282801561104e5780601f106110235761010080835404028352916020019161104e565b820191906000526020600020905b81548152906001019060200180831161103157829003601f168201915b5050505050908060020154905084565b60075481565b828160005b6000828152600360205260408120805490919061108257fe5b90600052602060002090600702016006018054905081101561120b57600082815260036020526040812080546001600160a01b03861692906110c057fe5b906000526020600020906007020160060182815481106110dc57fe5b6000918252602090912001546001600160a01b031614156112035760005b6000858152600360205260409020548110156111c657600085815260036020526040902080548791908390811061112d57fe5b906000526020600020906007020160050160006101000a8154816001600160a01b0302191690836001600160a01b0316021790555060036000868152602001908152602001600020818154811061118057fe5b60009182526020808320600792909202909101600601805460018082018355918452919092200180546001600160a01b0319166001600160a01b038916179055016110fa565b507f8ac47698a92e85fe6a4de1e347b769f6d71a906c4f1accb6e43f97e516bb2b028686866040516111fa93929190612977565b60405180910390a15b600101611069565b5060405162461bcd60e51b81526004016103fe90612c1d565b6000848152600360205260409020548110156112f057600084815260036020526040902080548691908390811061125757fe5b906000526020600020906007020160050160006101000a8154816001600160a01b0302191690836001600160a01b031602179055506003600085815260200190815260200160002081815481106112aa57fe5b60009182526020808320600792909202909101600601805460018082018355918452919092200180546001600160a01b0319166001600160a01b03881617905501611224565b507f8ac47698a92e85fe6a4de1e347b769f6d71a906c4f1accb6e43f97e516bb2b0285858560405161132493929190612977565b60405180910390a15050505050565b600060208181529181526040908190208054600180830180548551600261010094831615949094026000190190911692909204601f81018790048702830187019095528482526001600160a01b03831695600160a01b90930460ff169491929091908301828280156113e65780601f106113bb576101008083540402835291602001916113e6565b820191906000526020600020905b8154815290600101906020018083116113c957829003601f168201915b50505060028085018054604080516020601f60001961010060018716150201909416959095049283018590048502810185019091528181529596959450909250908301828280156114785780601f1061144d57610100808354040283529160200191611478565b820191906000526020600020905b81548152906001019060200180831161145b57829003601f168201915b5050505050908060030154905085565b611490611f07565b60056000836001600160a01b03166001600160a01b0316815260200190815260200160002060405180608001604052908160008201548152602001600182018054600181600116156101000203166002900480601f0160208091040260200160405190810160405280929190818152602001828054600181600116156101000203166002900480156115635780601f1061153857610100808354040283529160200191611563565b820191906000526020600020905b81548152906001019060200180831161154657829003601f168201915b5050509183525050600291909101546001600160a01b0381166020830152600160a01b900460ff16151560409091015292915050565b600160208181526000928352604092839020805481840180548651600261010097831615979097026000190190911695909504601f81018590048502860185019096528585526001600160a01b03821695600160a01b90920460ff169492939091908301828280156113e65780601f106113bb576101008083540402835291602001916113e6565b61162c83838361172d565b505050565b600081815260036020526040812080546060929061164b57fe5b90600052602060002090600702016006018054806020026020016040519081016040528092919081815260200182805480156116b057602002820191906000526020600020905b81546001600160a01b03168152600190910190602001808311611692575b50505050509050919050565b6116c4611e39565b6001600160a01b03831660009081526002602052604090208054839081106116e857fe5b90600052602060002090600302016040518060600160405290816000820154815260200160018201548152602001600282015481525050905092915050565b60045481565b6001600160a01b038316600090815260056020526040902060020154600160a01b900460ff1661176f5760405162461bcd60e51b81526004016103fe90612c3d565b6001600160a01b038316600090815260066020526040902080548391908390811061179657fe5b906000526020600020906003020160010190805190602001906117ba929190611e8d565b506001600160a01b038084166000908152600560209081526040918290206002015491516117ef93929092169185910161295b565b60408051601f1981840301815291815281516020928301206001600160a01b03861660009081526006909352912080548390811061182957fe5b9060005260206000209060030201600201819055507f454d8a558d144cd4e41c936f2111bc09adccc2598dc304f6fbde1f22a4e391a760066000856001600160a01b03166001600160a01b03168152602001908152602001600020828154811061188f57fe5b600091825260208083206003909202909101546001600160a01b03878116845260069092526040909220805491909216918591859081106118cc57fe5b9060005260206000209060030201600201546040516118ed93929190612a8e565b60405180910390a1505050565b611902611f3a565b6040518060a00160405280866001600160a01b0316815260200185600781111561192857fe5b815260208082018690526040808301869052600060609093018390526004548352828252909120825181546001600160a01b0319166001600160a01b03909116178082559183015192935083929091829060ff60a01b1916600160a01b83600781111561199157fe5b0217905550604082015180516119b1916001840191602090910190611e8d565b50606082015180516119cd916002840191602090910190611e8d565b50608091909101516003909101556001600160a01b038581166000908152600160209081526040909120835181546001600160a01b03191693169290921780835590830151839291829060ff60a01b1916600160a01b836007811115611a2f57fe5b021790555060408201518051611a4f916001840191602090910190611e8d565b5060608201518051611a6b916002840191602090910190611e8d565b50608091909101516003909101556004805460010190556040517fe877405d40b6278a753d8816f6aca4c9a908238e8bd4f27a51376e4f72c4a1ff906113249087908790879087906000906129e4565b611ac3611f3a565b60008281526020818152604091829020825160a0810190935280546001600160a01b03811684529091830190600160a01b900460ff166007811115611b0457fe5b6007811115611b0f57fe5b8152602001600182018054600181600116156101000203166002900480601f016020809104026020016040519081016040528092919081815260200182805460018160011615610100020316600290048015611bac5780601f10611b8157610100808354040283529160200191611bac565b820191906000526020600020905b815481529060010190602001808311611b8f57829003601f168201915b5050509183525050600282810180546040805160206001841615610100026000190190931694909404601f81018390048302850183019091528084529381019390830182828015611c3e5780601f10611c1357610100808354040283529160200191611c3e565b820191906000526020600020905b815481529060010190602001808311611c2157829003601f168201915b505050505081526020016003820154815250509050919050565b604080516080810182526007548152602080820184815233838501819052600160608501819052600091825260058452949020835181559051805193949193611ca993928501929190910190611e8d565b50604082810151600290920180546060909401511515600160a01b0260ff60a01b196001600160a01b039094166001600160a01b0319909516949094179290921692909217905560078054600101905533600081815260056020528290205491517f4e5d1b525fd1e629f8f3f766dae9bbf22eee19161c0d6bffc87b1e3816ece2a592611d3a929091859190612cb6565b60405180910390a150565b600080805b6020811015611d7e5780600101602060ff160360080260020a848260208110611d6f57fe5b1a029190910190600101611d4a565b5092915050565b6040518060e0016040528060006001600160a01b031681526020016000815260200160008152602001600081526020016000815260200160006001600160a01b03168152602001606081525090565b828054828255906000526020600020908101928215611e29579160200282015b82811115611e2957825182546001600160a01b0319166001600160a01b03909116178255602090920191600190910190611df4565b50611e35929150611f6a565b5090565b60405180606001604052806000815260200160008152602001600081525090565b604051806080016040528060006001600160a01b0316815260200160001515815260200160608152602001600081525090565b828054600181600116156101000203166002900490600052602060002090601f016020900481019282601f10611ece57805160ff1916838001178555611efb565b82800160010185558215611efb579182015b82811115611efb578251825591602001919060010190611ee0565b50611e35929150611f91565b6040518060800160405280600081526020016060815260200160006001600160a01b031681526020016000151581525090565b6040805160a081019091526000808252602082019081526020016060815260200160608152602001600081525090565b611f8e91905b80821115611e355780546001600160a01b0319168155600101611f70565b90565b611f8e91905b80821115611e355760008155600101611f97565b8035610a8d81612e62565b8035610a8d81612e76565b600082601f830112611fd257600080fd5b8135611fe5611fe082612d63565b612d3c565b9150808252602083016020830185838301111561200157600080fd5b61200c838284612dfc565b50505092915050565b8035610a8d81612e83565b60006020828403121561203257600080fd5b600061203e8484611fab565b949350505050565b60008060006060848603121561205b57600080fd5b60006120678686611fab565b935050602061207886828701611fab565b925050604061208986828701612015565b9150509250925092565b600080600080608085870312156120a957600080fd5b60006120b58787611fab565b94505060206120c687828801611fb6565b935050604085013567ffffffffffffffff8111156120e357600080fd5b6120ef87828801611fc1565b925050606085013567ffffffffffffffff81111561210c57600080fd5b61211887828801611fc1565b91505092959194509250565b60008060006060848603121561213957600080fd5b60006121458686611fab565b935050602084013567ffffffffffffffff81111561216257600080fd5b61207886828701611fc1565b6000806040838503121561218157600080fd5b600061218d8585611fab565b925050602061219e85828601612015565b9150509250929050565b600080600080600060a086880312156121c057600080fd5b60006121cc8888611fab565b95505060206121dd88828901612015565b945050604086013567ffffffffffffffff8111156121fa57600080fd5b61220688828901611fc1565b935050606061221788828901611fab565b925050608061222888828901612015565b9150509295509295909350565b60006020828403121561224757600080fd5b813567ffffffffffffffff81111561225e57600080fd5b61203e84828501611fc1565b60008060006060848603121561227f57600080fd5b833567ffffffffffffffff81111561229657600080fd5b6122a286828701611fc1565b93505060206122b386828701611fab565b925050604061208986828701611fab565b6000602082840312156122d657600080fd5b600061203e8484612015565b600080604083850312156122f557600080fd5b60006123018585612015565b925050602061219e85828601611fab565b6000806040838503121561232557600080fd5b60006123318585612015565b925050602083013567ffffffffffffffff81111561234e57600080fd5b61219e85828601611fc1565b6000806040838503121561236d57600080fd5b600061218d8585612015565b60008060008060008060c0878903121561239257600080fd5b600061239e8989612015565b96505060206123af89828a01612015565b95505060406123c089828a01612015565b94505060606123d189828a01612015565b93505060806123e289828a01612015565b92505060a06123f389828a01612015565b9150509295509295509295565b600061240c8383612436565b505060200190565b60006124208383612838565b9392505050565b61243081612dd0565b82525050565b61243081612daa565b61243061244b82612daa565b612e34565b600061245b82612d9d565b6124658185612da1565b935061247083612d8b565b8060005b8381101561249e5781516124888882612400565b975061249383612d8b565b925050600101612474565b509495945050505050565b60006124b482612d9d565b6124be8185612da1565b9350836020820285016124d085612d8b565b8060005b8581101561250a57848403895281516124ed8582612414565b94506124f883612d8b565b60209a909a01999250506001016124d4565b5091979650505050505050565b61243081612db5565b61243081612ddb565b61243081612de6565b600061253d82612d9d565b6125478185612da1565b9350612557818560208601612e08565b61256081612e45565b9093019392505050565b600061257582612d9d565b61257f8185610963565b935061258f818560208601612e08565b9290920192915050565b6000815460018116600081146125b657600181146125dc5761261b565b607f60028304166125c78187612da1565b60ff198416815295505060208501925061261b565b600282046125ea8187612da1565b95506125f585612d91565b60005b82811015612614578154888201526001909101906020016125f8565b8701945050505b505092915050565b6000612630601483612da1565b7310985d18da08191bd95cc81b9bdd08195e1a5cdd60621b815260200192915050565b6000612660602283612da1565b7f4d656469636174696f6e20696e7374616e636520646f6573206e6f74206578698152611cdd60f21b602082015260400192915050565b60006126a4600183612da1565b600160fd1b815260200192915050565b60006126c1601f83612da1565b7f4f6e6c79204d616e7566616374657265722063616e2061646420426174636800815260200192915050565b60006126fa602d83612da1565b7f4261746368206973206e6f74206173736f63696174656420776974682061636381526c1bdd5b9d081c1c9bdd9a591959609a1b602082015260400192915050565b6000612749602783612da1565b7f4f6e6c7920646f63746f722c206c616220706572736f6e2063616e20616464208152667265636f72647360c81b602082015260400192915050565b6000612792601683612da1565b7514185d1a595b9d08191bd95cc81b9bdd08195e1a5cdd60521b815260200192915050565b60006127c4602283612da1565b7f4f6e6c79204d616e7566616374657265722063616e20616464206d65646963698152616e6560f01b602082015260400192915050565b8051606083019061280c8482612952565b50602082015161281f6020850182612952565b5060408201516128326040850182612952565b50505050565b8051600090608084019061284c8582612436565b50602083015161285f6020860182612517565b50604083015184820360408601526128778282612532565b915050606083015161288c6060860182612952565b509392505050565b805160009060808401906128a88582612952565b50602083015184820360208601526128c08282612532565b91505060408301516128d56040860182612436565b50606083015161288c6060860182612517565b805160009060a08401906128fc8582612436565b50602083015161290f6020860182612520565b50604083015184820360408601526129278282612532565b915050606083015184820360608601526129418282612532565b915050608083015161288c60808601825b61243081611f8e565b6000612967828561243f565b60148201915061203e828461256a565b606081016129858286612436565b6129926020830185612436565b61203e6040830184612952565b608081016129ad8287612436565b6129ba6020830186612517565b81810360408301526129cc8185612532565b90506129db6060830184612952565b95945050505050565b60a081016129f28288612436565b6129ff6020830187612520565b8181036040830152612a118186612532565b90508181036060830152612a258185612532565b9050612a346080830184612529565b9695505050505050565b60a08101612a4c8288612436565b612a596020830187612520565b8181036040830152612a6b8186612532565b90508181036060830152612a7f8185612532565b9050612a346080830184612952565b60608101612a9c8286612436565b8181036020830152612aae8185612532565b905061203e6040830184612952565b60c08101612acb8289612436565b612ad86020830188612952565b612ae56040830187612952565b612af26060830186612952565b612aff6080830185612952565b612b0c60a0830184612436565b979650505050505050565b60e08101612b25828a612436565b612b326020830189612952565b612b3f6040830188612952565b612b4c6060830187612952565b612b596080830186612952565b612b6660a0830185612436565b81810360c0830152612b788184612450565b9998505050505050505050565b602080825281016124208184612450565b6020808252810161242081846124a9565b60208101610a8d8284612517565b60608082528101612bc68185612599565b90508181036020830152612bd981612697565b9050818103604083015261203e8184612532565b60208082528101610a8d81612623565b60208082528101610a8d81612653565b60208082528101610a8d816126b4565b60208082528101610a8d816126ed565b60208082528101610a8d8161273c565b60208082528101610a8d81612785565b60208082528101610a8d816127b7565b60608101610a8d82846127fb565b602080825281016124208184612894565b6020808252810161242081846128e8565b60208101610a8d8284612952565b60408101612ca98285612952565b6124206020830184612436565b60608101612cc48286612952565b8181036020830152612cd68185612532565b905061203e6040830184612427565b60808101612cf38287612952565b8181036020830152612d058186612532565b9050612d146040830185612436565b6129db6060830184612517565b60608101612d2f8286612952565b6129926020830185612952565b60405181810167ffffffffffffffff81118282101715612d5b57600080fd5b604052919050565b600067ffffffffffffffff821115612d7a57600080fd5b506020601f91909101601f19160190565b60200190565b60009081526020902090565b5190565b90815260200190565b6000610a8d82612dc4565b151590565b8061096381612e55565b6001600160a01b031690565b6000610a8d82612df1565b6000610a8d82612dba565b6000610a8d82611f8e565b6000610a8d82612daa565b82818337506000910152565b60005b83811015612e23578181015183820152602001612e0b565b838111156128325750506000910152565b6000610a8d826000610a8d82612e4f565b601f01601f191690565b60601b90565b60088110612e5f57fe5b50565b612e6b81612daa565b8114612e5f57600080fd5b60088110612e5f57600080fd5b612e6b81611f8e56fea365627a7a7231582092fac16b6c91184cd410489bc7066d28010eecd3839690c65b62291e3380055a6c6578706572696d656e74616cf564736f6c63430005100040",
  "source": "// SPDX-License-Identifier: MIT\npragma solidity >=0.4.22 <0.9.0;\npragma experimental ABIEncoderV2;\n\nimport \"./HealthRecordSystem.sol\";\n\ncontract EHRSupplychain is HealthRecordSystem {\n    function linkHealthRecordToMedication(address patient, uint256 medicationInstanceID, string memory _data, address manAdd, uint batchID) public {\n        require(patients[patient].exists, \"Patient does not exist\");\n        require(medicalRecords[patient][medicationInstanceID].exists, \"Medication instance does not exist\");\n        require(batchID < batches[manAdd].length, \"Batch does not exist\");\n        updateHealthRecord(patient, _data, medicationInstanceID);\n    }\n    \n     \n    function verifyMedicationOrigin(uint256 medicationInstanceID, address patientadd) public view returns (bool) {\n        require(medicalRecords[patientadd][medicationInstanceID].exists, \"Medication instance does not exist\");\n        if(medicationInstanceID < medicalRecords[patientadd].length) {\n            return true;\n        } else {\n            return false;\n        }\n    }\n    \n    function updateHealthRecord(address patient, string memory _data, uint256 medicationInstanceID) public {\n        super.updateMedicalRecord(patient, _data, medicationInstanceID);\n    }\n}\n",
  "sourcePath": "/Users/abhishek/Desktop/Innocodathone/contracts/EHRSupplychain.sol",
  "compiler": {
    "name": "solc",
    "version": "0.5.16+commit.9c3226ce.Emscripten.clang"
  },
  "schemaVersion": "3.4.16",
  "updatedAt": "2024-05-11T00:18:55.869Z",
  "networkType": "ethereum",
  "devdoc": {
    "methods": {}
  },
  "userdoc": {
    "methods": {}
  }
}