{
  "contractName": "HealthRecordSystem",
  "abi": [
    {
      "anonymous": false,
      "inputs": [
        {
          "indexed": false,
          "internalType": "bytes32",
          "name": "BathID",
          "type": "bytes32"
        },
        {
          "indexed": false,
          "internalType": "address",
          "name": "byMan",
          "type": "address"
        }
      ],
      "name": "BatchAdded",
      "type": "event"
    },
    {
      "anonymous": false,
      "inputs": [
        {
          "indexed": false,
          "internalType": "address",
          "name": "medicalRecordID",
          "type": "address"
        },
        {
          "indexed": false,
          "internalType": "string",
          "name": "data",
          "type": "string"
        },
        {
          "indexed": false,
          "internalType": "uint256",
          "name": "hash",
          "type": "uint256"
        }
      ],
      "name": "MedicalRecordAdded",
      "type": "event"
    },
    {
      "anonymous": false,
      "inputs": [
        {
          "indexed": false,
          "internalType": "uint256",
          "name": "patientID",
          "type": "uint256"
        },
        {
          "indexed": false,
          "internalType": "string",
          "name": "name",
          "type": "string"
        },
        {
          "indexed": false,
          "internalType": "address",
          "name": "medicalHistoryID",
          "type": "address"
        }
      ],
      "name": "PatientAdded",
      "type": "event"
    },
    {
      "anonymous": false,
      "inputs": [
        {
          "indexed": false,
          "internalType": "address",
          "name": "acctAdd",
          "type": "address"
        },
        {
          "indexed": false,
          "internalType": "enum PharmaChain.Roles",
          "name": "_role",
          "type": "uint8"
        },
        {
          "indexed": false,
          "internalType": "string",
          "name": "_licNo",
          "type": "string"
        },
        {
          "indexed": false,
          "internalType": "string",
          "name": "_orgName",
          "type": "string"
        },
        {
          "indexed": false,
          "internalType": "uint256",
          "name": "totalBatch",
          "type": "uint256"
        }
      ],
      "name": "StakeHolderadded",
      "type": "event"
    },
    {
      "anonymous": false,
      "inputs": [
        {
          "indexed": false,
          "internalType": "address",
          "name": "manId",
          "type": "address"
        },
        {
          "indexed": false,
          "internalType": "bytes32",
          "name": "BatchId",
          "type": "bytes32"
        },
        {
          "indexed": false,
          "internalType": "uint256",
          "name": "price",
          "type": "uint256"
        },
        {
          "indexed": false,
          "internalType": "uint256",
          "name": "expDate",
          "type": "uint256"
        },
        {
          "indexed": false,
          "internalType": "uint256",
          "name": "mfgDate",
          "type": "uint256"
        },
        {
          "indexed": false,
          "internalType": "address",
          "name": "owner",
          "type": "address"
        },
        {
          "indexed": false,
          "internalType": "address[]",
          "name": "owners",
          "type": "address[]"
        }
      ],
      "name": "medicineAdded",
      "type": "event"
    },
    {
      "anonymous": false,
      "inputs": [
        {
          "indexed": false,
          "internalType": "address",
          "name": "_currentOwner",
          "type": "address"
        },
        {
          "indexed": false,
          "internalType": "address",
          "name": "_newOwner",
          "type": "address"
        },
        {
          "indexed": false,
          "internalType": "bytes32",
          "name": "_batchId",
          "type": "bytes32"
        }
      ],
      "name": "ownershipTransfer",
      "type": "event"
    },
    {
      "constant": false,
      "inputs": [
        {
          "internalType": "uint256",
          "name": "_shID",
          "type": "uint256"
        },
        {
          "internalType": "string",
          "name": "medname",
          "type": "string"
        }
      ],
      "name": "addBatch",
      "outputs": [],
      "payable": false,
      "stateMutability": "nonpayable",
      "type": "function"
    },
    {
      "constant": false,
      "inputs": [
        {
          "internalType": "uint256",
          "name": "_shID",
          "type": "uint256"
        },
        {
          "internalType": "uint256",
          "name": "_bId",
          "type": "uint256"
        },
        {
          "internalType": "bytes32",
          "name": "BatchId",
          "type": "bytes32"
        },
        {
          "internalType": "uint256",
          "name": "price",
          "type": "uint256"
        },
        {
          "internalType": "uint256",
          "name": "_expDate",
          "type": "uint256"
        },
        {
          "internalType": "uint256",
          "name": "_mfgDate",
          "type": "uint256"
        }
      ],
      "name": "addMedicine",
      "outputs": [],
      "payable": false,
      "stateMutability": "nonpayable",
      "type": "function"
    },
    {
      "constant": false,
      "inputs": [
        {
          "internalType": "address",
          "name": "_acctAdd",
          "type": "address"
        },
        {
          "internalType": "enum PharmaChain.Roles",
          "name": "_role",
          "type": "uint8"
        },
        {
          "internalType": "string",
          "name": "_licNo",
          "type": "string"
        },
        {
          "internalType": "string",
          "name": "_orgName",
          "type": "string"
        }
      ],
      "name": "addParticipant",
      "outputs": [],
      "payable": false,
      "stateMutability": "nonpayable",
      "type": "function"
    },
    {
      "constant": true,
      "inputs": [
        {
          "internalType": "address",
          "name": "",
          "type": "address"
        },
        {
          "internalType": "uint256",
          "name": "",
          "type": "uint256"
        }
      ],
      "name": "batches",
      "outputs": [
        {
          "internalType": "bytes32",
          "name": "BatchId",
          "type": "bytes32"
        },
        {
          "internalType": "uint256",
          "name": "Qty",
          "type": "uint256"
        },
        {
          "internalType": "uint256",
          "name": "batchId",
          "type": "uint256"
        }
      ],
      "payable": false,
      "stateMutability": "view",
      "type": "function"
    },
    {
      "constant": false,
      "inputs": [
        {
          "internalType": "address",
          "name": "_manAdd",
          "type": "address"
        },
        {
          "internalType": "uint256",
          "name": "_id",
          "type": "uint256"
        }
      ],
      "name": "getBatches",
      "outputs": [
        {
          "components": [
            {
              "internalType": "bytes32",
              "name": "BatchId",
              "type": "bytes32"
            },
            {
              "internalType": "uint256",
              "name": "Qty",
              "type": "uint256"
            },
            {
              "internalType": "uint256",
              "name": "batchId",
              "type": "uint256"
            }
          ],
          "internalType": "struct PharmaChain.Batch",
          "name": "",
          "type": "tuple"
        }
      ],
      "payable": false,
      "stateMutability": "nonpayable",
      "type": "function"
    },
    {
      "constant": false,
      "inputs": [
        {
          "internalType": "bytes32",
          "name": "_bid",
          "type": "bytes32"
        }
      ],
      "name": "getHistory",
      "outputs": [
        {
          "internalType": "address[]",
          "name": "",
          "type": "address[]"
        }
      ],
      "payable": false,
      "stateMutability": "nonpayable",
      "type": "function"
    },
    {
      "constant": false,
      "inputs": [
        {
          "internalType": "uint256",
          "name": "_id",
          "type": "uint256"
        }
      ],
      "name": "getStakeHolder",
      "outputs": [
        {
          "components": [
            {
              "internalType": "address",
              "name": "acctAdd",
              "type": "address"
            },
            {
              "internalType": "enum PharmaChain.Roles",
              "name": "role",
              "type": "uint8"
            },
            {
              "internalType": "string",
              "name": "licNo",
              "type": "string"
            },
            {
              "internalType": "string",
              "name": "orgName",
              "type": "string"
            },
            {
              "internalType": "uint256",
              "name": "totalBatch",
              "type": "uint256"
            }
          ],
          "internalType": "struct PharmaChain.StakeHolder",
          "name": "",
          "type": "tuple"
        }
      ],
      "payable": false,
      "stateMutability": "nonpayable",
      "type": "function"
    },
    {
      "constant": true,
      "inputs": [],
      "name": "medicalRecordCount",
      "outputs": [
        {
          "internalType": "uint256",
          "name": "",
          "type": "uint256"
        }
      ],
      "payable": false,
      "stateMutability": "view",
      "type": "function"
    },
    {
      "constant": true,
      "inputs": [
        {
          "internalType": "address",
          "name": "",
          "type": "address"
        },
        {
          "internalType": "uint256",
          "name": "",
          "type": "uint256"
        }
      ],
      "name": "medicalRecords",
      "outputs": [
        {
          "internalType": "address",
          "name": "medicalRecordID",
          "type": "address"
        },
        {
          "internalType": "bool",
          "name": "exists",
          "type": "bool"
        },
        {
          "internalType": "string",
          "name": "data",
          "type": "string"
        },
        {
          "internalType": "uint256",
          "name": "hash",
          "type": "uint256"
        }
      ],
      "payable": false,
      "stateMutability": "view",
      "type": "function"
    },
    {
      "constant": true,
      "inputs": [
        {
          "internalType": "bytes32",
          "name": "",
          "type": "bytes32"
        },
        {
          "internalType": "uint256",
          "name": "",
          "type": "uint256"
        }
      ],
      "name": "medicines",
      "outputs": [
        {
          "internalType": "address",
          "name": "manId",
          "type": "address"
        },
        {
          "internalType": "bytes32",
          "name": "BatchId",
          "type": "bytes32"
        },
        {
          "internalType": "uint256",
          "name": "price",
          "type": "uint256"
        },
        {
          "internalType": "uint256",
          "name": "expDate",
          "type": "uint256"
        },
        {
          "internalType": "uint256",
          "name": "mfgDate",
          "type": "uint256"
        },
        {
          "internalType": "address",
          "name": "owner",
          "type": "address"
        }
      ],
      "payable": false,
      "stateMutability": "view",
      "type": "function"
    },
    {
      "constant": false,
      "inputs": [
        {
          "internalType": "address",
          "name": "_currentOwner",
          "type": "address"
        },
        {
          "internalType": "address",
          "name": "_newOwner",
          "type": "address"
        },
        {
          "internalType": "bytes32",
          "name": "_batchId",
          "type": "bytes32"
        }
      ],
      "name": "ownerTransfer",
      "outputs": [],
      "payable": false,
      "stateMutability": "nonpayable",
      "type": "function"
    },
    {
      "constant": true,
      "inputs": [],
      "name": "patientCount",
      "outputs": [
        {
          "internalType": "uint256",
          "name": "",
          "type": "uint256"
        }
      ],
      "payable": false,
      "stateMutability": "view",
      "type": "function"
    },
    {
      "constant": true,
      "inputs": [
        {
          "internalType": "address",
          "name": "",
          "type": "address"
        }
      ],
      "name": "patients",
      "outputs": [
        {
          "internalType": "uint256",
          "name": "patientID",
          "type": "uint256"
        },
        {
          "internalType": "string",
          "name": "name",
          "type": "string"
        },
        {
          "internalType": "address",
          "name": "medicalHistoryID",
          "type": "address"
        },
        {
          "internalType": "bool",
          "name": "exists",
          "type": "bool"
        }
      ],
      "payable": false,
      "stateMutability": "view",
      "type": "function"
    },
    {
      "constant": true,
      "inputs": [],
      "name": "stakeHolderCount",
      "outputs": [
        {
          "internalType": "uint256",
          "name": "",
          "type": "uint256"
        }
      ],
      "payable": false,
      "stateMutability": "view",
      "type": "function"
    },
    {
      "constant": true,
      "inputs": [
        {
          "internalType": "uint256",
          "name": "",
          "type": "uint256"
        }
      ],
      "name": "stakeHolders",
      "outputs": [
        {
          "internalType": "address",
          "name": "acctAdd",
          "type": "address"
        },
        {
          "internalType": "enum PharmaChain.Roles",
          "name": "role",
          "type": "uint8"
        },
        {
          "internalType": "string",
          "name": "licNo",
          "type": "string"
        },
        {
          "internalType": "string",
          "name": "orgName",
          "type": "string"
        },
        {
          "internalType": "uint256",
          "name": "totalBatch",
          "type": "uint256"
        }
      ],
      "payable": false,
      "stateMutability": "view",
      "type": "function"
    },
    {
      "constant": true,
      "inputs": [
        {
          "internalType": "address",
          "name": "",
          "type": "address"
        }
      ],
      "name": "stakeholders",
      "outputs": [
        {
          "internalType": "address",
          "name": "acctAdd",
          "type": "address"
        },
        {
          "internalType": "enum PharmaChain.Roles",
          "name": "role",
          "type": "uint8"
        },
        {
          "internalType": "string",
          "name": "licNo",
          "type": "string"
        },
        {
          "internalType": "string",
          "name": "orgName",
          "type": "string"
        },
        {
          "internalType": "uint256",
          "name": "totalBatch",
          "type": "uint256"
        }
      ],
      "payable": false,
      "stateMutability": "view",
      "type": "function"
    },
    {
      "constant": false,
      "inputs": [
        {
          "internalType": "string",
          "name": "_name",
          "type": "string"
        }
      ],
      "name": "addPatient",
      "outputs": [],
      "payable": false,
      "stateMutability": "nonpayable",
      "type": "function"
    },
    {
      "constant": false,
      "inputs": [
        {
          "internalType": "string",
          "name": "_data",
          "type": "string"
        },
        {
          "internalType": "address",
          "name": "medicalRecordAdd",
          "type": "address"
        },
        {
          "internalType": "address",
          "name": "patientAdd",
          "type": "address"
        }
      ],
      "name": "addMedicalRecord",
      "outputs": [],
      "payable": false,
      "stateMutability": "nonpayable",
      "type": "function"
    },
    {
      "constant": true,
      "inputs": [
        {
          "internalType": "address",
          "name": "_patientAddress",
          "type": "address"
        }
      ],
      "name": "getPatient",
      "outputs": [
        {
          "components": [
            {
              "internalType": "uint256",
              "name": "patientID",
              "type": "uint256"
            },
            {
              "internalType": "string",
              "name": "name",
              "type": "string"
            },
            {
              "internalType": "address",
              "name": "medicalHistoryID",
              "type": "address"
            },
            {
              "internalType": "bool",
              "name": "exists",
              "type": "bool"
            }
          ],
          "internalType": "struct HealthRecordSystem.Patient",
          "name": "",
          "type": "tuple"
        }
      ],
      "payable": false,
      "stateMutability": "view",
      "type": "function"
    },
    {
      "constant": true,
      "inputs": [
        {
          "internalType": "address",
          "name": "_patientAddress",
          "type": "address"
        }
      ],
      "name": "getMedicalRecord",
      "outputs": [
        {
          "components": [
            {
              "internalType": "address",
              "name": "medicalRecordID",
              "type": "address"
            },
            {
              "internalType": "bool",
              "name": "exists",
              "type": "bool"
            },
            {
              "internalType": "string",
              "name": "data",
              "type": "string"
            },
            {
              "internalType": "uint256",
              "name": "hash",
              "type": "uint256"
            }
          ],
          "internalType": "struct HealthRecordSystem.MedicalRecord[]",
          "name": "",
          "type": "tuple[]"
        }
      ],
      "payable": false,
      "stateMutability": "view",
      "type": "function"
    },
    {
      "constant": false,
      "inputs": [
        {
          "internalType": "address",
          "name": "_patientAddress",
          "type": "address"
        },
        {
          "internalType": "string",
          "name": "_data",
          "type": "string"
        },
        {
          "internalType": "uint256",
          "name": "_medID",
          "type": "uint256"
        }
      ],
      "name": "updateMedicalRecord",
      "outputs": [],
      "payable": false,
      "stateMutability": "nonpayable",
      "type": "function"
    }
  ],
  "bytecode": "0x600060048190556007608090815266546573746f6f3160c81b60a052610100604052600560c09081526420b236b4b760d91b60e0526200004c92339290916001600160e01b03620000c816565b6200007b60006040518060400160405280600481526020016315195cdd60e21b815250620002a760201b60201c565b336000908152600260205260408120805482906200009557fe5b600091825260208220600390910201549150620000c1908083600180806001600160e01b036200040f16565b5062000cbc565b620000d26200069d565b6040518060a00160405280866001600160a01b03168152602001856007811115620000f957fe5b815260208082018690526040808301869052600060609093018390526004548352828252909120825181546001600160a01b0319166001600160a01b03909116178082559183015192935083929091829060ff60a01b1916600160a01b8360078111156200016357fe5b02179055506040820151805162000185916001840191602090910190620006cd565b5060608201518051620001a3916002840191602090910190620006cd565b50608091909101516003909101556001600160a01b038581166000908152600160209081526040909120835181546001600160a01b03191693169290921780835590830151839291829060ff60a01b1916600160a01b8360078111156200020657fe5b02179055506040820151805162000228916001840191602090910190620006cd565b506060820151805162000246916002840191602090910190620006cd565b50608091909101516003909101556004805460010190556040517fe877405d40b6278a753d8816f6aca4c9a908238e8bd4f27a51376e4f72c4a1ff906200029890879087908790879060009062000b14565b60405180910390a15050505050565b60008083815260208190526040902054600160a01b900460ff166007811115620002cd57fe5b14620002f65760405162461bcd60e51b8152600401620002ed9062000be4565b60405180910390fd5b60008281526020818152604080832090516200031b9260019092019185910162000b9e565b60408051601f1981840301815291815281516020928301206000868152808452828120546001600160a01b0316815260029093529120549091506200035f62000752565b50604080516060810182528381526000602080830182815283850186815289845283835285842080546001600160a01b03908116865260028086528887208054600181810183559189528789208a516003928302909101908155965187830155945195909101949094558b86529490935282018054909101905554925191927f18697cbfbee16fb064a04277684626041d8f02e0984053a77fe722a2330275aa9262000298928792169062000b78565b60008087815260208190526040902054600160a01b900460ff1660078111156200043557fe5b14620004555760405162461bcd60e51b8152600401620002ed9062000bfc565b6040805160018082528183019092526060916020808301908038833950505060008881526020819052604081205482519293506001600160a01b0316918391906200049c57fe5b60200260200101906001600160a01b031690816001600160a01b031681525050620004c662000776565b506040805160e08101825260008981526020818152838220546001600160a01b03168084528184018a9052838501899052606084018890526080840187905260a0840181905260c08401869052825260029052918220805491926003929091908a9081106200053157fe5b6000918252602080832060039283020154845283810194909452604092830182208054600181810180845592855293869020875160079092020180546001600160a01b039283166001600160a01b031991821617825588880151958201959095559487015160028601556060870151928501929092556080860151600485015560a086015160058501805491909316931692909217905560c084015180519193859392620005e69260068501920190620007c8565b505050600089815260208181526040808320546001600160a01b03168352600290915290208054909150889081106200061b57fe5b600091825260208083206001600390930201820180549092019091558982528190526040908190205490517f82790152195df26e990b2c4200acee5e92b7d6b79e0d5d7a47b0d3e94d38dedc916200068b916001600160a01b0390911690899089908990899085908a9062000a98565b60405180910390a15050505050505050565b6040805160a081019091526000808252602082019081526020016060815260200160608152602001600081525090565b828054600181600116156101000203166002900490600052602060002090601f016020900481019282601f106200071057805160ff191683800117855562000740565b8280016001018555821562000740579182015b828111156200074057825182559160200191906001019062000723565b506200074e9291506200082e565b5090565b60405180606001604052806000801916815260200160008152602001600081525090565b6040518060e0016040528060006001600160a01b031681526020016000801916815260200160008152602001600081526020016000815260200160006001600160a01b03168152602001606081525090565b82805482825590600052602060002090810192821562000820579160200282015b828111156200082057825182546001600160a01b0319166001600160a01b03909116178255602090920191600190910190620007e9565b506200074e9291506200084e565b6200084b91905b808211156200074e576000815560010162000835565b90565b6200084b91905b808211156200074e5780546001600160a01b031916815560010162000855565b60006200088383836200088b565b505060200190565b620008968162000c2d565b82525050565b6000620008a98262000c20565b620008b5818562000c24565b9350620008c28362000c0e565b8060005b83811015620008f6578151620008dd888262000875565b9750620008ea8362000c0e565b925050600101620008c6565b509495945050505050565b62000896816200084b565b620008968162000c57565b620008968162000c64565b60006200092f8262000c20565b6200093b818562000c24565b93506200094d81856020860162000c71565b620009588162000ca4565b9093019392505050565b600081546001811660008114620009825760018114620009ab57620009f0565b607f600283041662000995818762000c24565b60ff1984168152955050602085019250620009f0565b60028204620009bb818762000c24565b9550620009c88562000c14565b60005b82811015620009e957815488820152600190910190602001620009cb565b8701945050505b505092915050565b600062000a0760018362000c24565b600160fd1b815260200192915050565b600062000a26601f8362000c24565b7f4f6e6c79204d616e7566616374657265722063616e2061646420426174636800815260200192915050565b600062000a6160228362000c24565b7f4f6e6c79204d616e7566616374657265722063616e20616464206d65646963698152616e6560f01b602082015260400192915050565b60e0810162000aa8828a6200088b565b62000ab7602083018962000901565b62000ac6604083018862000901565b62000ad5606083018762000901565b62000ae4608083018662000901565b62000af360a08301856200088b565b81810360c083015262000b0781846200089c565b9998505050505050505050565b60a0810162000b2482886200088b565b62000b3360208301876200090c565b818103604083015262000b47818662000922565b9050818103606083015262000b5d818562000922565b905062000b6e608083018462000917565b9695505050505050565b6040810162000b88828562000901565b62000b9760208301846200088b565b9392505050565b6060808252810162000bb1818562000962565b9050818103602083015262000bc681620009f8565b9050818103604083015262000bdc818462000922565b949350505050565b6020808252810162000bf68162000a17565b92915050565b6020808252810162000bf68162000a52565b60200190565b60009081526020902090565b5190565b90815260200190565b600062000bf68262000c4b565b8062000c468162000cae565b919050565b6001600160a01b031690565b600062000bf68262000c3a565b600062000bf6826200084b565b60005b8381101562000c8e57818101518382015260200162000c74565b8381111562000c9e576000848401525b50505050565b601f01601f191690565b6008811062000cb957fe5b50565b612b328062000ccc6000396000f3fe608060405234801561001057600080fd5b50600436106101375760003560e01c806397678a03116100b8578063d09a888a1161007c578063d09a888a146102d4578063d6dd9d4d146102f4578063decef1c2146102fc578063ec27a3971461030f578063f99f55aa14610322578063fb87cf941461034257610137565b806397678a0314610252578063a0303c4114610275578063acad41a41461027d578063b5368e20146102a1578063c07cfca9146102c157610137565b80636aafa5e9116100ff5780636aafa5e9146101d057806375a52e93146101f25780638d07df8f146102175780639090de481461022a578063911867541461023d57610137565b80630869cfbc1461013c5780630e37da7a14610168578063115d620d1461017d5780632fea1a6f1461019d57806333b0c711146101bd575b600080fd5b61014f61014a366004611dde565b610355565b60405161015f9493929190612963565b60405180910390f35b61017b610176366004611e04565b610418565b005b61019061018b366004611f66565b6106f0565b60405161015f9190612816565b6101b06101ab366004611dde565b61077c565b60405161015f9190612827565b61017b6101cb36600461207a565b6108f4565b6101e36101de366004611f2c565b610b75565b60405161015f93929190612853565b610205610200366004611f84565b610bb4565b60405161015f96959493929190612675565b61017b610225366004612032565b610c13565b61017b610238366004611fd8565b610d68565b6102456110d7565b60405161015f9190612926565b610265610260366004611f2c565b6110dd565b60405161015f9493929190612630565b6102456111bf565b61029061028b366004611f66565b6111c5565b60405161015f959493929190612797565b6102b46102af366004611dde565b61131a565b60405161015f9190612904565b6102906102cf366004611dde565b61142b565b6102e76102e2366004611f2c565b6114b3565b60405161015f91906128f6565b61024561151f565b61017b61030a366004611ee2565b611525565b61017b61031d366004611e51565b6116f2565b610335610330366004611f66565b6118b3565b60405161015f9190612915565b61017b610350366004611fa3565b611a50565b6005602090815260009182526040918290208054600180830180548651600293821615610100026000190190911692909204601f8101869004860283018601909652858252919492939092908301828280156103f25780601f106103c7576101008083540402835291602001916103f2565b820191906000526020600020905b8154815290600101906020018083116103d557829003601f168201915b505050600290930154919250506001600160a01b0381169060ff600160a01b9091041684565b828160005b6000828152600360205260408120805490919061043657fe5b9060005260206000209060070201600601805490508110156105bf57600082815260036020526040812080546001600160a01b038616929061047457fe5b9060005260206000209060070201600601828154811061049057fe5b6000918252602090912001546001600160a01b031614156105b75760005b60008581526003602052604090205481101561057a5760008581526003602052604090208054879190839081106104e157fe5b906000526020600020906007020160050160006101000a8154816001600160a01b0302191690836001600160a01b0316021790555060036000868152602001908152602001600020818154811061053457fe5b60009182526020808320600792909202909101600601805460018082018355918452919092200180546001600160a01b0319166001600160a01b038916179055016104ae565b507f5ca3c78f7c7ccbeb665831ffeef1d05bd81943bfe249a5dbf97fa0198e754f0e8686866040516105ae93929190612608565b60405180910390a15b60010161041d565b5060405162461bcd60e51b81526004016105d8906128b6565b60405180910390fd5b6000848152600360205260409020548110156106ad57600084815260036020526040902080548691908390811061061457fe5b906000526020600020906007020160050160006101000a8154816001600160a01b0302191690836001600160a01b0316021790555060036000858152602001908152602001600020818154811061066757fe5b60009182526020808320600792909202909101600601805460018082018355918452919092200180546001600160a01b0319166001600160a01b038816179055016105e1565b507f5ca3c78f7c7ccbeb665831ffeef1d05bd81943bfe249a5dbf97fa0198e754f0e8585856040516106e193929190612608565b60405180910390a15050505050565b600081815260036020526040812080546060929061070a57fe5b906000526020600020906007020160060180548060200260200160405190810160405280929190818152602001828054801561076f57602002820191906000526020600020905b81546001600160a01b03168152600190910190602001808311610751575b505050505090505b919050565b6001600160a01b038116600090815260056020526040902060020154606090600160a01b900460ff166107c15760405162461bcd60e51b81526004016105d8906128d6565b6001600160a01b038216600090815260066020908152604080832080548251818502810185019093528083529193909284015b828210156108e9576000848152602090819020604080516080810182526003860290920180546001600160a01b0381168452600160a01b900460ff16151583850152600180820180548451600261010094831615949094026000190190911692909204601f81018790048702830187018552808352949592949386019391929091908301828280156108c75780601f1061089c576101008083540402835291602001916108c7565b820191906000526020600020905b8154815290600101906020018083116108aa57829003601f168201915b50505050508152602001600282015481525050815260200190600101906107f4565b505050509050919050565b60008087815260208190526040902054600160a01b900460ff16600781111561091957fe5b146109365760405162461bcd60e51b81526004016105d8906128e6565b6040805160018082528183019092526060916020808301908038833950505060008881526020819052604081205482519293506001600160a01b03169183919061097c57fe5b60200260200101906001600160a01b031690816001600160a01b0316815250506109a4611b3d565b506040805160e08101825260008981526020818152838220546001600160a01b03168084528184018a9052838501899052606084018890526080840187905260a0840181905260c08401869052825260029052918220805491926003929091908a908110610a0e57fe5b6000918252602080832060039283020154845283810194909452604092830182208054600181810180845592855293869020875160079092020180546001600160a01b039283166001600160a01b031991821617825588880151958201959095559487015160028601556060870151928501929092556080860151600485015560a086015160058501805491909316931692909217905560c084015180519193859392610ac19260068501920190611b8f565b505050600089815260208181526040808320546001600160a01b0316835260029091529020805490915088908110610af557fe5b600091825260208083206001600390930201820180549092019091558982528190526040908190205490517f82790152195df26e990b2c4200acee5e92b7d6b79e0d5d7a47b0d3e94d38dedc91610b63916001600160a01b0390911690899089908990899085908a906126cf565b60405180910390a15050505050505050565b60026020528160005260406000208181548110610b8e57fe5b600091825260209091206003909102018054600182015460029092015490935090915083565b60036020528160005260406000208181548110610bcd57fe5b60009182526020909120600790910201805460018201546002830154600384015460048501546005909501546001600160a01b0394851697509295509093909290911686565b60008083815260208190526040902054600160a01b900460ff166007811115610c3857fe5b14610c555760405162461bcd60e51b81526004016105d8906128a6565b6000828152602081815260408083209051610c789260019092019185910161286e565b60408051601f1981840301815291815281516020928301206000868152808452828120546001600160a01b031681526002909352912054909150610cba611bf4565b50604080516060810182528381526000602080830182815283850186815289845283835285842080546001600160a01b03908116865260028086528887208054600181810183559189528789208a516003928302909101908155965187830155945195909101949094558b86529490935282018054909101905554925191927f18697cbfbee16fb064a04277684626041d8f02e0984053a77fe722a2330275aa926106e19287921690612838565b33600090815260056020526040902060020154600160a01b900460ff16610da15760405162461bcd60e51b81526004016105d8906128d6565b600533600090815260016020526040902054600160a01b900460ff166007811115610dc857fe5b1480610df85750600633600090815260016020526040902054600160a01b900460ff166007811115610df657fe5b145b80610e275750600433600090815260016020526040902054600160a01b900460ff166007811115610e2557fe5b145b610e435760405162461bcd60e51b81526004016105d8906128c6565b610e4b611c18565b604080516080810182526001600160a01b03808616825260016020808401919091528284018890523360009081526005825284902060020154935192936060850193610e9e9391909116918991016125ec565b60408051601f19818403018152919052805160209091012090529050600533600090815260016020526040902054600160a01b900460ff166007811115610ee157fe5b1415610f8a576001600160a01b03821660009081526006602052604090206008548154839291908110610f1057fe5b600091825260209182902083516003909202018054848401511515600160a01b0260ff60a01b196001600160a01b039094166001600160a01b03199092169190911792909216919091178155604083015180519192610f7792600185019290910190611c4b565b5060608201518160020155905050611020565b3360009081526006602052604090206008548154839291908110610faa57fe5b600091825260209182902083516003909202018054848401511515600160a01b0260ff60a01b196001600160a01b039094166001600160a01b0319909216919091179290921691909117815560408301518051919261101192600185019290910190611c4b565b50606082015181600201559050505b600880546001810190915533600090815260066020526040902080547f454d8a558d144cd4e41c936f2111bc09adccc2598dc304f6fbde1f22a4e391a79290811061106757fe5b600091825260208083206003909202909101543383526006909152604090912060085481546001600160a01b0390931692889291600019019081106110a857fe5b9060005260206000209060030201600201546040516110c9939291906127e7565b60405180910390a150505050565b60085481565b600660205281600052604060002081815481106110f657fe5b60009182526020918290206003919091020180546001808301805460408051600261010095841615959095026000190190921693909304601f81018790048702820187019093528281526001600160a01b0384169750600160a01b90930460ff16955092939192918301828280156111af5780601f10611184576101008083540402835291602001916111af565b820191906000526020600020905b81548152906001019060200180831161119257829003601f168201915b5050505050908060020154905084565b60075481565b600060208181529181526040908190208054600180830180548551600261010094831615949094026000190190911692909204601f81018790048702830187019095528482526001600160a01b03831695600160a01b90930460ff169491929091908301828280156112785780601f1061124d57610100808354040283529160200191611278565b820191906000526020600020905b81548152906001019060200180831161125b57829003601f168201915b50505060028085018054604080516020601f600019610100600187161502019094169590950492830185900485028101850190915281815295969594509092509083018282801561130a5780601f106112df5761010080835404028352916020019161130a565b820191906000526020600020905b8154815290600101906020018083116112ed57829003601f168201915b5050505050908060030154905085565b611322611cc5565b60056000836001600160a01b03166001600160a01b0316815260200190815260200160002060405180608001604052908160008201548152602001600182018054600181600116156101000203166002900480601f0160208091040260200160405190810160405280929190818152602001828054600181600116156101000203166002900480156113f55780601f106113ca576101008083540402835291602001916113f5565b820191906000526020600020905b8154815290600101906020018083116113d857829003601f168201915b5050509183525050600291909101546001600160a01b0381166020830152600160a01b900460ff16151560409091015292915050565b600160208181526000928352604092839020805481840180548651600261010097831615979097026000190190911695909504601f81018590048502860185019096528585526001600160a01b03821695600160a01b90920460ff169492939091908301828280156112785780601f1061124d57610100808354040283529160200191611278565b6114bb611bf4565b6001600160a01b03831660009081526002602052604090208054839081106114df57fe5b9060005260206000209060030201604051806060016040529081600082015481526020016001820154815260200160028201548152505090505b92915050565b60045481565b6001600160a01b038316600090815260056020526040902060020154600160a01b900460ff166115675760405162461bcd60e51b81526004016105d8906128d6565b6001600160a01b038316600090815260066020526040902080548391908390811061158e57fe5b906000526020600020906003020160010190805190602001906115b2929190611c4b565b506001600160a01b038084166000908152600560209081526040918290206002015491516115e79392909216918591016125ec565b60408051601f1981840301815291815281516020928301206001600160a01b03861660009081526006909352912080548390811061162157fe5b9060005260206000209060030201600201819055507f454d8a558d144cd4e41c936f2111bc09adccc2598dc304f6fbde1f22a4e391a760066000856001600160a01b03166001600160a01b03168152602001908152602001600020828154811061168757fe5b600091825260208083206003909202909101546001600160a01b03878116845260069092526040909220805491909216918591859081106116c457fe5b9060005260206000209060030201600201546040516116e5939291906127e7565b60405180910390a1505050565b6116fa611cf8565b6040518060a00160405280866001600160a01b0316815260200185600781111561172057fe5b815260208082018690526040808301869052600060609093018390526004548352828252909120825181546001600160a01b0319166001600160a01b03909116178082559183015192935083929091829060ff60a01b1916600160a01b83600781111561178957fe5b0217905550604082015180516117a9916001840191602090910190611c4b565b50606082015180516117c5916002840191602090910190611c4b565b50608091909101516003909101556001600160a01b038581166000908152600160209081526040909120835181546001600160a01b03191693169290921780835590830151839291829060ff60a01b1916600160a01b83600781111561182757fe5b021790555060408201518051611847916001840191602090910190611c4b565b5060608201518051611863916002840191602090910190611c4b565b50608091909101516003909101556004805460010190556040517fe877405d40b6278a753d8816f6aca4c9a908238e8bd4f27a51376e4f72c4a1ff906106e190879087908790879060009061273d565b6118bb611cf8565b60008281526020818152604091829020825160a0810190935280546001600160a01b03811684529091830190600160a01b900460ff1660078111156118fc57fe5b600781111561190757fe5b8152602001600182018054600181600116156101000203166002900480601f0160208091040260200160405190810160405280929190818152602001828054600181600116156101000203166002900480156119a45780601f10611979576101008083540402835291602001916119a4565b820191906000526020600020905b81548152906001019060200180831161198757829003601f168201915b5050509183525050600282810180546040805160206001841615610100026000190190931694909404601f81018390048302850183019091528084529381019390830182828015611a365780601f10611a0b57610100808354040283529160200191611a36565b820191906000526020600020905b815481529060010190602001808311611a1957829003601f168201915b505050505081526020016003820154815250509050919050565b604080516080810182526007548152602080820184815233838501819052600160608501819052600091825260058452949020835181559051805193949193611aa193928501929190910190611c4b565b50604082810151600290920180546060909401511515600160a01b0260ff60a01b196001600160a01b039094166001600160a01b0319909516949094179290921692909217905560078054600101905533600081815260056020528290205491517f4e5d1b525fd1e629f8f3f766dae9bbf22eee19161c0d6bffc87b1e3816ece2a592611b32929091859190612934565b60405180910390a150565b6040518060e0016040528060006001600160a01b031681526020016000801916815260200160008152602001600081526020016000815260200160006001600160a01b03168152602001606081525090565b828054828255906000526020600020908101928215611be4579160200282015b82811115611be457825182546001600160a01b0319166001600160a01b03909116178255602090920191600190910190611baf565b50611bf0929150611d28565b5090565b60405180606001604052806000801916815260200160008152602001600081525090565b604051806080016040528060006001600160a01b0316815260200160001515815260200160608152602001600081525090565b828054600181600116156101000203166002900490600052602060002090601f016020900481019282601f10611c8c57805160ff1916838001178555611cb9565b82800160010185558215611cb9579182015b82811115611cb9578251825591602001919060010190611c9e565b50611bf0929150611d4f565b6040518060800160405280600081526020016060815260200160006001600160a01b031681526020016000151581525090565b6040805160a081019091526000808252602082019081526020016060815260200160608152602001600081525090565b611d4c91905b80821115611bf05780546001600160a01b0319168155600101611d2e565b90565b611d4c91905b80821115611bf05760008155600101611d55565b803561151981612ac5565b803561151981612ad9565b803561151981612ae2565b600082601f830112611d9b57600080fd5b8135611dae611da9826129c6565b61299f565b91508082526020830160208301858383011115611dca57600080fd5b611dd5838284612a5f565b50505092915050565b600060208284031215611df057600080fd5b6000611dfc8484611d69565b949350505050565b600080600060608486031215611e1957600080fd5b6000611e258686611d69565b9350506020611e3686828701611d69565b9250506040611e4786828701611d74565b9150509250925092565b60008060008060808587031215611e6757600080fd5b6000611e738787611d69565b9450506020611e8487828801611d7f565b935050604085013567ffffffffffffffff811115611ea157600080fd5b611ead87828801611d8a565b925050606085013567ffffffffffffffff811115611eca57600080fd5b611ed687828801611d8a565b91505092959194509250565b600080600060608486031215611ef757600080fd5b6000611f038686611d69565b935050602084013567ffffffffffffffff811115611f2057600080fd5b611e3686828701611d8a565b60008060408385031215611f3f57600080fd5b6000611f4b8585611d69565b9250506020611f5c85828601611d74565b9150509250929050565b600060208284031215611f7857600080fd5b6000611dfc8484611d74565b60008060408385031215611f9757600080fd5b6000611f4b8585611d74565b600060208284031215611fb557600080fd5b813567ffffffffffffffff811115611fcc57600080fd5b611dfc84828501611d8a565b600080600060608486031215611fed57600080fd5b833567ffffffffffffffff81111561200457600080fd5b61201086828701611d8a565b935050602061202186828701611d69565b9250506040611e4786828701611d69565b6000806040838503121561204557600080fd5b60006120518585611d74565b925050602083013567ffffffffffffffff81111561206e57600080fd5b611f5c85828601611d8a565b60008060008060008060c0878903121561209357600080fd5b600061209f8989611d74565b96505060206120b089828a01611d74565b95505060406120c189828a01611d74565b94505060606120d289828a01611d74565b93505060806120e389828a01611d74565b92505060a06120f489828a01611d74565b9150509295509295509295565b600061210d8383612137565b505060200190565b600061212183836124ce565b9392505050565b61213181612a33565b82525050565b61213181612a0d565b61213161214c82612a0d565b612a97565b600061215c82612a00565b6121668185612a04565b9350612171836129ee565b8060005b8381101561219f5781516121898882612101565b9750612194836129ee565b925050600101612175565b509495945050505050565b60006121b582612a00565b6121bf8185612a04565b9350836020820285016121d1856129ee565b8060005b8581101561220b57848403895281516121ee8582612115565b94506121f9836129ee565b60209a909a01999250506001016121d5565b5091979650505050505050565b61213181612a18565b61213181611d4c565b61213181612a3e565b61213181612a49565b600061224782612a00565b6122518185612a04565b9350612261818560208601612a6b565b61226a81612aa8565b9093019392505050565b600061227f82612a00565b6122898185610777565b9350612299818560208601612a6b565b9290920192915050565b6000815460018116600081146122c057600181146122e657612325565b607f60028304166122d18187612a04565b60ff1984168152955050602085019250612325565b600282046122f48187612a04565b95506122ff856129f4565b60005b8281101561231e57815488820152600190910190602001612302565b8701945050505b505092915050565b600061233a600183612a04565b600160fd1b815260200192915050565b6000612357601f83612a04565b7f4f6e6c79204d616e7566616374657265722063616e2061646420426174636800815260200192915050565b6000612390602d83612a04565b7f4261746368206973206e6f74206173736f63696174656420776974682061636381526c1bdd5b9d081c1c9bdd9a591959609a1b602082015260400192915050565b60006123df602783612a04565b7f4f6e6c7920646f63746f722c206c616220706572736f6e2063616e20616464208152667265636f72647360c81b602082015260400192915050565b6000612428601683612a04565b7514185d1a595b9d08191bd95cc81b9bdd08195e1a5cdd60521b815260200192915050565b600061245a602283612a04565b7f4f6e6c79204d616e7566616374657265722063616e20616464206d65646963698152616e6560f01b602082015260400192915050565b805160608301906124a28482612221565b5060208201516124b56020850182612221565b5060408201516124c86040850182612221565b50505050565b805160009060808401906124e28582612137565b5060208301516124f56020860182612218565b506040830151848203604086015261250d828261223c565b91505060608301516125226060860182612221565b509392505050565b8051600090608084019061253e8582612221565b5060208301518482036020860152612556828261223c565b915050604083015161256b6040860182612137565b5060608301516125226060860182612218565b805160009060a08401906125928582612137565b5060208301516125a5602086018261222a565b50604083015184820360408601526125bd828261223c565b915050606083015184820360608601526125d7828261223c565b91505060808301516125226080860182612221565b60006125f88285612140565b601482019150611dfc8284612274565b606081016126168286612137565b6126236020830185612137565b611dfc6040830184612221565b6080810161263e8287612137565b61264b6020830186612218565b818103604083015261265d818561223c565b905061266c6060830184612221565b95945050505050565b60c081016126838289612137565b6126906020830188612221565b61269d6040830187612221565b6126aa6060830186612221565b6126b76080830185612221565b6126c460a0830184612137565b979650505050505050565b60e081016126dd828a612137565b6126ea6020830189612221565b6126f76040830188612221565b6127046060830187612221565b6127116080830186612221565b61271e60a0830185612137565b81810360c08301526127308184612151565b9998505050505050505050565b60a0810161274b8288612137565b612758602083018761222a565b818103604083015261276a818661223c565b9050818103606083015261277e818561223c565b905061278d6080830184612233565b9695505050505050565b60a081016127a58288612137565b6127b2602083018761222a565b81810360408301526127c4818661223c565b905081810360608301526127d8818561223c565b905061278d6080830184612221565b606081016127f58286612137565b8181036020830152612807818561223c565b9050611dfc6040830184612221565b602080825281016121218184612151565b6020808252810161212181846121aa565b604081016128468285612221565b6121216020830184612137565b606081016128618286612221565b6126236020830185612221565b6060808252810161287f81856122a3565b905081810360208301526128928161232d565b90508181036040830152611dfc818461223c565b602080825281016115198161234a565b6020808252810161151981612383565b60208082528101611519816123d2565b602080825281016115198161241b565b602080825281016115198161244d565b606081016115198284612491565b60208082528101612121818461252a565b60208082528101612121818461257e565b602081016115198284612221565b606081016129428286612221565b8181036020830152612954818561223c565b9050611dfc6040830184612128565b608081016129718287612221565b8181036020830152612983818661223c565b90506129926040830185612137565b61266c6060830184612218565b60405181810167ffffffffffffffff811182821017156129be57600080fd5b604052919050565b600067ffffffffffffffff8211156129dd57600080fd5b506020601f91909101601f19160190565b60200190565b60009081526020902090565b5190565b90815260200190565b600061151982612a27565b151590565b8061077781612ab8565b6001600160a01b031690565b600061151982612a54565b600061151982612a1d565b600061151982611d4c565b600061151982612a0d565b82818337506000910152565b60005b83811015612a86578181015183820152602001612a6e565b838111156124c85750506000910152565b600061151982600061151982612ab2565b601f01601f191690565b60601b90565b60088110612ac257fe5b50565b612ace81612a0d565b8114612ac257600080fd5b612ace81611d4c565b60088110612ac257600080fdfea365627a7a7231582002117fae3d978cfb455db29a0bffaa27463049dd0d17e484a6eef9a6291b3c9b6c6578706572696d656e74616cf564736f6c63430005100040",
  "source": "// SPDX-License-Identifier: MIT \npragma solidity >=0.4.22 <0.9.0;\npragma experimental ABIEncoderV2;\n\nimport \"./PharmaChain.sol\";\n\ncontract HealthRecordSystem is PharmaChain {\n    struct HealthRecord {\n        string data;\n        address patientPublicKey;\n        address doctorPublicKey;\n        bool encrypted;\n    }\n\n     struct Patient {\n        uint256 patientID;\n        string name;\n        address medicalHistoryID;\n        bool exists;\n    }\n\n    struct MedicalRecord {\n        address medicalRecordID;\n        bool exists;\n        string data;\n        uint256 hash; // Hash references Patient.medicalHistoryID\n    }\n\n    mapping(address => Patient) public patients;\n    mapping(address => MedicalRecord[]) public medicalRecords;\n\n    uint256 public patientCount;\n    uint256 public medicalRecordCount;\n\n    event PatientAdded(uint256 patientID, string name, address medicalHistoryID);\n    event MedicalRecordAdded(address medicalRecordID, string data, uint256 hash);\n\n    function addPatient(string memory _name) public {\n        patients[msg.sender] = Patient({\n            patientID: patientCount,\n            name: _name,\n            medicalHistoryID: msg.sender, // Assuming medical history is stored on-chain\n            exists: true\n        });\n        patientCount++;\n        emit PatientAdded(patients[msg.sender].patientID, _name, msg.sender);\n    }\n\n    function addMedicalRecord(string memory _data, address medicalRecordAdd, address patientAdd) public {\n        require(patients[msg.sender].exists, \"Patient does not exist\");\n        require(stakeholders[msg.sender].role == Roles.DOCTOR || stakeholders[msg.sender].role == Roles.LAB || stakeholders[msg.sender].role == Roles.PATIENT, \"Only doctor, lab person can add records\");\n        \n        MedicalRecord memory mr = MedicalRecord({\n            medicalRecordID: medicalRecordAdd,\n            data: _data,\n            exists: true,\n            hash: uint256(keccak256(abi.encodePacked(patients[msg.sender].medicalHistoryID, _data)))\n        });\n        if (stakeholders[msg.sender].role == Roles.DOCTOR) {\n        medicalRecords[patientAdd][medicalRecordCount] = mr;\n        } else {\n        medicalRecords[msg.sender][medicalRecordCount] = mr;\n        }\n        medicalRecordCount++;\n        emit MedicalRecordAdded(medicalRecords[msg.sender][medicalRecordCount - 1].medicalRecordID, _data, medicalRecords[msg.sender][medicalRecordCount - 1].hash);\n    }\n    \n    function getPatient(address _patientAddress) public view returns (Patient memory) {\n        return patients[_patientAddress];\n    }\n\n    function getMedicalRecord(address _patientAddress) public view returns (MedicalRecord[] memory) {\n        require(patients[_patientAddress].exists, \"Patient does not exist\");\n        return medicalRecords[_patientAddress];\n    }\n\n    function updateMedicalRecord(address _patientAddress, string memory _data, uint256 _medID) public {\n        require(patients[_patientAddress].exists, \"Patient does not exist\");\n        medicalRecords[_patientAddress][_medID].data = _data;\n        medicalRecords[_patientAddress][_medID].hash = uint256(keccak256(abi.encodePacked(patients[_patientAddress].medicalHistoryID, _data)));\n        emit MedicalRecordAdded(medicalRecords[_patientAddress][_medID].medicalRecordID, _data, medicalRecords[_patientAddress][_medID].hash);\n    }\n}\n",
  "sourcePath": "/Users/abhishek/Desktop/Innocodathone/contracts/HealthRecordSystem.sol",
  "compiler": {
    "name": "solc",
    "version": "0.5.16+commit.9c3226ce.Emscripten.clang"
  },
  "schemaVersion": "3.4.16",
  "updatedAt": "2024-05-10T23:37:25.541Z",
  "networkType": "ethereum",
  "devdoc": {
    "methods": {}
  },
  "userdoc": {
    "methods": {}
  }
}