{
  "contractName": "PharmaChain",
  "abi": [
    {
      "inputs": [],
      "payable": false,
      "stateMutability": "nonpayable",
      "type": "constructor"
    },
    {
      "anonymous": false,
      "inputs": [
        {
          "indexed": false,
          "internalType": "uint256",
          "name": "BathID",
          "type": "uint256"
        },
        {
          "indexed": false,
          "internalType": "address",
          "name": "byMan",
          "type": "address"
        }
      ],
      "name": "BatchAdded",
      "type": "event"
    },
    {
      "anonymous": false,
      "inputs": [
        {
          "indexed": false,
          "internalType": "address",
          "name": "acctAdd",
          "type": "address"
        },
        {
          "indexed": false,
          "internalType": "enum PharmaChain.Roles",
          "name": "_role",
          "type": "uint8"
        },
        {
          "indexed": false,
          "internalType": "string",
          "name": "_licNo",
          "type": "string"
        },
        {
          "indexed": false,
          "internalType": "string",
          "name": "_orgName",
          "type": "string"
        },
        {
          "indexed": false,
          "internalType": "uint256",
          "name": "totalBatch",
          "type": "uint256"
        }
      ],
      "name": "StakeHolderadded",
      "type": "event"
    },
    {
      "anonymous": false,
      "inputs": [
        {
          "indexed": false,
          "internalType": "address",
          "name": "manId",
          "type": "address"
        },
        {
          "indexed": false,
          "internalType": "uint256",
          "name": "BatchId",
          "type": "uint256"
        },
        {
          "indexed": false,
          "internalType": "uint256",
          "name": "price",
          "type": "uint256"
        },
        {
          "indexed": false,
          "internalType": "uint256",
          "name": "expDate",
          "type": "uint256"
        },
        {
          "indexed": false,
          "internalType": "uint256",
          "name": "mfgDate",
          "type": "uint256"
        },
        {
          "indexed": false,
          "internalType": "address",
          "name": "owner",
          "type": "address"
        },
        {
          "indexed": false,
          "internalType": "address[]",
          "name": "owners",
          "type": "address[]"
        }
      ],
      "name": "medicineAdded",
      "type": "event"
    },
    {
      "anonymous": false,
      "inputs": [
        {
          "indexed": false,
          "internalType": "address",
          "name": "_currentOwner",
          "type": "address"
        },
        {
          "indexed": false,
          "internalType": "address",
          "name": "_newOwner",
          "type": "address"
        },
        {
          "indexed": false,
          "internalType": "uint256",
          "name": "_batchId",
          "type": "uint256"
        }
      ],
      "name": "ownershipTransfer",
      "type": "event"
    },
    {
      "constant": true,
      "inputs": [
        {
          "internalType": "address",
          "name": "",
          "type": "address"
        },
        {
          "internalType": "uint256",
          "name": "",
          "type": "uint256"
        }
      ],
      "name": "batches",
      "outputs": [
        {
          "internalType": "uint256",
          "name": "BatchId",
          "type": "uint256"
        },
        {
          "internalType": "uint256",
          "name": "Qty",
          "type": "uint256"
        },
        {
          "internalType": "uint256",
          "name": "batchId",
          "type": "uint256"
        }
      ],
      "payable": false,
      "stateMutability": "view",
      "type": "function"
    },
    {
      "constant": true,
      "inputs": [
        {
          "internalType": "uint256",
          "name": "",
          "type": "uint256"
        },
        {
          "internalType": "uint256",
          "name": "",
          "type": "uint256"
        }
      ],
      "name": "medicines",
      "outputs": [
        {
          "internalType": "address",
          "name": "manId",
          "type": "address"
        },
        {
          "internalType": "uint256",
          "name": "BatchId",
          "type": "uint256"
        },
        {
          "internalType": "uint256",
          "name": "price",
          "type": "uint256"
        },
        {
          "internalType": "uint256",
          "name": "expDate",
          "type": "uint256"
        },
        {
          "internalType": "uint256",
          "name": "mfgDate",
          "type": "uint256"
        },
        {
          "internalType": "address",
          "name": "owner",
          "type": "address"
        }
      ],
      "payable": false,
      "stateMutability": "view",
      "type": "function"
    },
    {
      "constant": true,
      "inputs": [],
      "name": "stakeHolderCount",
      "outputs": [
        {
          "internalType": "uint256",
          "name": "",
          "type": "uint256"
        }
      ],
      "payable": false,
      "stateMutability": "view",
      "type": "function"
    },
    {
      "constant": true,
      "inputs": [
        {
          "internalType": "uint256",
          "name": "",
          "type": "uint256"
        }
      ],
      "name": "stakeHolders",
      "outputs": [
        {
          "internalType": "address",
          "name": "acctAdd",
          "type": "address"
        },
        {
          "internalType": "enum PharmaChain.Roles",
          "name": "role",
          "type": "uint8"
        },
        {
          "internalType": "string",
          "name": "licNo",
          "type": "string"
        },
        {
          "internalType": "string",
          "name": "orgName",
          "type": "string"
        },
        {
          "internalType": "uint256",
          "name": "totalBatch",
          "type": "uint256"
        }
      ],
      "payable": false,
      "stateMutability": "view",
      "type": "function"
    },
    {
      "constant": true,
      "inputs": [
        {
          "internalType": "address",
          "name": "",
          "type": "address"
        }
      ],
      "name": "stakeholders",
      "outputs": [
        {
          "internalType": "address",
          "name": "acctAdd",
          "type": "address"
        },
        {
          "internalType": "enum PharmaChain.Roles",
          "name": "role",
          "type": "uint8"
        },
        {
          "internalType": "string",
          "name": "licNo",
          "type": "string"
        },
        {
          "internalType": "string",
          "name": "orgName",
          "type": "string"
        },
        {
          "internalType": "uint256",
          "name": "totalBatch",
          "type": "uint256"
        }
      ],
      "payable": false,
      "stateMutability": "view",
      "type": "function"
    },
    {
      "constant": false,
      "inputs": [
        {
          "internalType": "address",
          "name": "_acctAdd",
          "type": "address"
        },
        {
          "internalType": "enum PharmaChain.Roles",
          "name": "_role",
          "type": "uint8"
        },
        {
          "internalType": "string",
          "name": "_licNo",
          "type": "string"
        },
        {
          "internalType": "string",
          "name": "_orgName",
          "type": "string"
        }
      ],
      "name": "addParticipant",
      "outputs": [],
      "payable": false,
      "stateMutability": "nonpayable",
      "type": "function"
    },
    {
      "constant": false,
      "inputs": [
        {
          "internalType": "uint256",
          "name": "_shID",
          "type": "uint256"
        },
        {
          "internalType": "string",
          "name": "medname",
          "type": "string"
        }
      ],
      "name": "addBatch",
      "outputs": [],
      "payable": false,
      "stateMutability": "nonpayable",
      "type": "function"
    },
    {
      "constant": false,
      "inputs": [
        {
          "internalType": "uint256",
          "name": "_shID",
          "type": "uint256"
        },
        {
          "internalType": "uint256",
          "name": "_bId",
          "type": "uint256"
        },
        {
          "internalType": "uint256",
          "name": "BatchId",
          "type": "uint256"
        },
        {
          "internalType": "uint256",
          "name": "price",
          "type": "uint256"
        },
        {
          "internalType": "uint256",
          "name": "_expDate",
          "type": "uint256"
        },
        {
          "internalType": "uint256",
          "name": "_mfgDate",
          "type": "uint256"
        }
      ],
      "name": "addMedicine",
      "outputs": [],
      "payable": false,
      "stateMutability": "nonpayable",
      "type": "function"
    },
    {
      "constant": false,
      "inputs": [
        {
          "internalType": "address",
          "name": "_currentOwner",
          "type": "address"
        },
        {
          "internalType": "address",
          "name": "_newOwner",
          "type": "address"
        },
        {
          "internalType": "uint256",
          "name": "_batchId",
          "type": "uint256"
        }
      ],
      "name": "ownerTransfer",
      "outputs": [],
      "payable": false,
      "stateMutability": "nonpayable",
      "type": "function"
    },
    {
      "constant": true,
      "inputs": [
        {
          "internalType": "uint256",
          "name": "_id",
          "type": "uint256"
        }
      ],
      "name": "getStakeHolder",
      "outputs": [
        {
          "components": [
            {
              "internalType": "address",
              "name": "acctAdd",
              "type": "address"
            },
            {
              "internalType": "enum PharmaChain.Roles",
              "name": "role",
              "type": "uint8"
            },
            {
              "internalType": "string",
              "name": "licNo",
              "type": "string"
            },
            {
              "internalType": "string",
              "name": "orgName",
              "type": "string"
            },
            {
              "internalType": "uint256",
              "name": "totalBatch",
              "type": "uint256"
            }
          ],
          "internalType": "struct PharmaChain.StakeHolder",
          "name": "",
          "type": "tuple"
        }
      ],
      "payable": false,
      "stateMutability": "view",
      "type": "function"
    },
    {
      "constant": true,
      "inputs": [
        {
          "internalType": "address",
          "name": "_manAdd",
          "type": "address"
        },
        {
          "internalType": "uint256",
          "name": "_id",
          "type": "uint256"
        }
      ],
      "name": "getBatches",
      "outputs": [
        {
          "components": [
            {
              "internalType": "uint256",
              "name": "BatchId",
              "type": "uint256"
            },
            {
              "internalType": "uint256",
              "name": "Qty",
              "type": "uint256"
            },
            {
              "internalType": "uint256",
              "name": "batchId",
              "type": "uint256"
            }
          ],
          "internalType": "struct PharmaChain.Batch",
          "name": "",
          "type": "tuple"
        }
      ],
      "payable": false,
      "stateMutability": "view",
      "type": "function"
    },
    {
      "constant": true,
      "inputs": [
        {
          "internalType": "uint256",
          "name": "_bid",
          "type": "uint256"
        }
      ],
      "name": "getHistory",
      "outputs": [
        {
          "internalType": "address[]",
          "name": "",
          "type": "address[]"
        }
      ],
      "payable": false,
      "stateMutability": "view",
      "type": "function"
    }
  ],
  "bytecode": "0x608060405260006004553480156200001657600080fd5b506200006833600060405180604001604052806007815260200166546573746f6f3160c81b8152506040518060400160405280600581526020016420b236b4b760d91b815250620000e460201b60201c565b6200009760006040518060400160405280600481526020016315195cdd60e21b815250620002c360201b60201c565b33600090815260026020526040812080548290620000b157fe5b600091825260208220600390910201549150620000dd908083600180806001600160e01b036200045216565b5062000d39565b620000ee62000725565b6040518060a00160405280866001600160a01b031681526020018560078111156200011557fe5b815260208082018690526040808301869052600060609093018390526004548352828252909120825181546001600160a01b0319166001600160a01b03909116178082559183015192935083929091829060ff60a01b1916600160a01b8360078111156200017f57fe5b021790555060408201518051620001a191600184019160209091019062000755565b5060608201518051620001bf91600284019160209091019062000755565b50608091909101516003909101556001600160a01b038581166000908152600160209081526040909120835181546001600160a01b03191693169290921780835590830151839291829060ff60a01b1916600160a01b8360078111156200022257fe5b0217905550604082015180516200024491600184019160209091019062000755565b50606082015180516200026291600284019160209091019062000755565b50608091909101516003909101556004805460010190556040517fe877405d40b6278a753d8816f6aca4c9a908238e8bd4f27a51376e4f72c4a1ff90620002b490879087908790879060009062000b1a565b60405180910390a15050505050565b60008083815260208190526040902054600160a01b900460ff166007811115620002e957fe5b14620003125760405162461bcd60e51b8152600401620003099062000c40565b60405180910390fd5b6000828152602081815260408083209051620003379260019092019185910162000bfa565b60405160208183030381529060405280519060200120905060006200036282620006e060201b60201c565b600085815260208181526040808320546001600160a01b03168352600290915290205490915062000392620007da565b5060408051606081018252838152600060208083018281528385018681528a845283835285842080546001600160a01b03908116865260028086528887208054600181810183559189528789208a516003928302909101908155965187830155945195909101949094558c86529490935282018054909101905554925191927fc6fdee6a6ac8e97bb4ceea768bcc0b008d23dd2da36f5637ece378e8cb9abb4f9262000442928792169062000c6a565b60405180910390a1505050505050565b60008087815260208190526040902054600160a01b900460ff1660078111156200047857fe5b14620004985760405162461bcd60e51b8152600401620003099062000c58565b6040805160018082528183019092526060916020808301908038833950505060008881526020819052604081205482519293506001600160a01b031691839190620004df57fe5b60200260200101906001600160a01b031690816001600160a01b03168152505062000509620007fb565b506040805160e08101825260008981526020818152838220546001600160a01b03168084528184018a9052838501899052606084018890526080840187905260a0840181905260c08401869052825260029052918220805491926003929091908a9081106200057457fe5b6000918252602080832060039283020154845283810194909452604092830182208054600181810180845592855293869020875160079092020180546001600160a01b039283166001600160a01b031991821617825588880151958201959095559487015160028601556060870151928501929092556080860151600485015560a086015160058501805491909316931692909217905560c0840151805191938593926200062992600685019201906200084a565b505050600089815260208181526040808320546001600160a01b03168352600290915290208054909150889081106200065e57fe5b600091825260208083206001600390930201820180549092019091558982528190526040908190205490517fea2e0da97934b93ad70759075b5f9c0bd5f2d7f9d28389cb1e13efb3eddf4f1991620006ce916001600160a01b0390911690899089908990899085908a9062000b7e565b60405180910390a15050505050505050565b600080805b60208110156200071c5780600101602060ff160360080260020a8482602081106200070c57fe5b1a029190910190600101620006e5565b5090505b919050565b6040805160a081019091526000808252602082019081526020016060815260200160608152602001600081525090565b828054600181600116156101000203166002900490600052602060002090601f016020900481019282601f106200079857805160ff1916838001178555620007c8565b82800160010185558215620007c8579182015b82811115620007c8578251825591602001919060010190620007ab565b50620007d6929150620008b0565b5090565b60405180606001604052806000815260200160008152602001600081525090565b6040518060e0016040528060006001600160a01b031681526020016000815260200160008152602001600081526020016000815260200160006001600160a01b03168152602001606081525090565b828054828255906000526020600020908101928215620008a2579160200282015b82811115620008a257825182546001600160a01b0319166001600160a01b039091161782556020909201916001909101906200086b565b50620007d6929150620008d0565b620008cd91905b80821115620007d65760008155600101620008b7565b90565b620008cd91905b80821115620007d65780546001600160a01b0319168155600101620008d7565b60006200090583836200090d565b505060200190565b620009188162000caf565b82525050565b60006200092b8262000ca2565b62000937818562000ca6565b9350620009448362000c90565b8060005b83811015620009785781516200095f8882620008f7565b97506200096c8362000c90565b92505060010162000948565b509495945050505050565b620009188162000cd4565b620009188162000ce1565b6000620009a68262000ca2565b620009b2818562000ca6565b9350620009c481856020860162000cee565b620009cf8162000d21565b9093019392505050565b600081546001811660008114620009f9576001811462000a225762000a67565b607f600283041662000a0c818762000ca6565b60ff198416815295505060208501925062000a67565b6002820462000a32818762000ca6565b955062000a3f8562000c96565b60005b8281101562000a605781548882015260019091019060200162000a42565b8701945050505b505092915050565b600062000a7e60018362000ca6565b600160fd1b815260200192915050565b600062000a9d601f8362000ca6565b7f4f6e6c79204d616e7566616374657265722063616e2061646420426174636800815260200192915050565b600062000ad860228362000ca6565b7f4f6e6c79204d616e7566616374657265722063616e20616464206d65646963698152616e6560f01b602082015260400192915050565b6200091881620008cd565b60a0810162000b2a82886200090d565b62000b39602083018762000983565b818103604083015262000b4d818662000999565b9050818103606083015262000b63818562000999565b905062000b7460808301846200098e565b9695505050505050565b60e0810162000b8e828a6200090d565b62000b9d602083018962000b0f565b62000bac604083018862000b0f565b62000bbb606083018762000b0f565b62000bca608083018662000b0f565b62000bd960a08301856200090d565b81810360c083015262000bed81846200091e565b9998505050505050505050565b6060808252810162000c0d8185620009d9565b9050818103602083015262000c228162000a6f565b9050818103604083015262000c38818462000999565b949350505050565b6020808252810162000c528162000a8e565b92915050565b6020808252810162000c528162000ac9565b6040810162000c7a828562000b0f565b62000c8960208301846200090d565b9392505050565b60200190565b60009081526020902090565b5190565b90815260200190565b600062000c528262000cc8565b80620007208162000d2b565b6001600160a01b031690565b600062000c528262000cbc565b600062000c5282620008cd565b60005b8381101562000d0b57818101518382015260200162000cf1565b8381111562000d1b576000848401525b50505050565b601f01601f191690565b6008811062000d3657fe5b50565b611b398062000d496000396000f3fe608060405234801561001057600080fd5b50600436106100b45760003560e01c8063c07cfca911610071578063c07cfca914610168578063c8691b2a1461017b578063d09a888a1461019b578063d6dd9d4d146101bb578063ec27a397146101d0578063f99f55aa146101e3576100b4565b80630257c6e5146100b957806349d33817146100ce5780636aafa5e9146100fc5780638d07df8f1461011e578063a1291f7f14610131578063acad41a414610144575b600080fd5b6100cc6100c73660046113df565b610203565b005b6100e16100dc3660046113c0565b61048d565b6040516100f39695949392919061182d565b60405180910390f35b61010f61010a366004611320565b6104ec565b6040516100f3939291906119bd565b6100cc61012c366004611378565b61052b565b6100cc61013f366004611242565b61069f565b61015761015236600461135a565b61096e565b6040516100f39594939291906117dd565b61015761017636600461121c565b610ac3565b61018e61018936600461135a565b610b4b565b6040516100f391906118f5565b6101ae6101a9366004611320565b610bd7565b6040516100f39190611975565b6101c3610c43565b6040516100f39190611994565b6100cc6101de36600461128f565b610c49565b6101f66101f136600461135a565b610e0a565b6040516100f39190611983565b60008087815260208190526040902054600160a01b900460ff16600781111561022857fe5b1461024e5760405162461bcd60e51b815260040161024590611965565b60405180910390fd5b6040805160018082528183019092526060916020808301908038833950505060008881526020819052604081205482519293506001600160a01b03169183919061029457fe5b60200260200101906001600160a01b031690816001600160a01b0316815250506102bc610fe7565b506040805160e08101825260008981526020818152838220546001600160a01b03168084528184018a9052838501899052606084018890526080840187905260a0840181905260c08401869052825260029052918220805491926003929091908a90811061032657fe5b6000918252602080832060039283020154845283810194909452604092830182208054600181810180845592855293869020875160079092020180546001600160a01b039283166001600160a01b031991821617825588880151958201959095559487015160028601556060870151928501929092556080860151600485015560a086015160058501805491909316931692909217905560c0840151805191938593926103d99260068501920190611036565b505050600089815260208181526040808320546001600160a01b031683526002909152902080549091508890811061040d57fe5b600091825260208083206001600390930201820180549092019091558982528190526040908190205490517fea2e0da97934b93ad70759075b5f9c0bd5f2d7f9d28389cb1e13efb3eddf4f199161047b916001600160a01b0390911690899089908990899085908a90611887565b60405180910390a15050505050505050565b600360205281600052604060002081815481106104a657fe5b60009182526020909120600790910201805460018201546002830154600384015460048501546005909501546001600160a01b0394851697509295509093909290911686565b6002602052816000526040600020818154811061050557fe5b600091825260209091206003909102018054600182015460029092015490935090915083565b60008083815260208190526040902054600160a01b900460ff16600781111561055057fe5b1461056d5760405162461bcd60e51b815260040161024590611945565b60008281526020818152604080832090516105909260019092019185910161190d565b60405160208183030381529060405280519060200120905060006105b382610fa7565b600085815260208181526040808320546001600160a01b0316835260029091529020549091506105e161109b565b5060408051606081018252838152600060208083018281528385018681528a845283835285842080546001600160a01b03908116865260028086528887208054600181810183559189528789208a516003928302909101908155965187830155945195909101949094558c86529490935282018054909101905554925191927fc6fdee6a6ac8e97bb4ceea768bcc0b008d23dd2da36f5637ece378e8cb9abb4f9261068f92879216906119a2565b60405180910390a1505050505050565b828160005b600082815260036020526040812080549091906106bd57fe5b90600052602060002090600702016006018054905081101561084657600082815260036020526040812080546001600160a01b03861692906106fb57fe5b9060005260206000209060070201600601828154811061071757fe5b6000918252602090912001546001600160a01b0316141561083e5760005b60008581526003602052604090205481101561080157600085815260036020526040902080548791908390811061076857fe5b906000526020600020906007020160050160006101000a8154816001600160a01b0302191690836001600160a01b031602179055506003600086815260200190815260200160002081815481106107bb57fe5b60009182526020808320600792909202909101600601805460018082018355918452919092200180546001600160a01b0319166001600160a01b03891617905501610735565b507f8ac47698a92e85fe6a4de1e347b769f6d71a906c4f1accb6e43f97e516bb2b028686866040516108359392919061175b565b60405180910390a15b6001016106a4565b5060405162461bcd60e51b815260040161024590611955565b60008481526003602052604090205481101561092b57600084815260036020526040902080548691908390811061089257fe5b906000526020600020906007020160050160006101000a8154816001600160a01b0302191690836001600160a01b031602179055506003600085815260200190815260200160002081815481106108e557fe5b60009182526020808320600792909202909101600601805460018082018355918452919092200180546001600160a01b0319166001600160a01b0388161790550161085f565b507f8ac47698a92e85fe6a4de1e347b769f6d71a906c4f1accb6e43f97e516bb2b0285858560405161095f9392919061175b565b60405180910390a15050505050565b600060208181529181526040908190208054600180830180548551600261010094831615949094026000190190911692909204601f81018790048702830187019095528482526001600160a01b03831695600160a01b90930460ff16949192909190830182828015610a215780601f106109f657610100808354040283529160200191610a21565b820191906000526020600020905b815481529060010190602001808311610a0457829003601f168201915b50505060028085018054604080516020601f6000196101006001871615020190941695909504928301859004850281018501909152818152959695945090925090830182828015610ab35780601f10610a8857610100808354040283529160200191610ab3565b820191906000526020600020905b815481529060010190602001808311610a9657829003601f168201915b5050505050908060030154905085565b600160208181526000928352604092839020805481840180548651600261010097831615979097026000190190911695909504601f81018590048502860185019096528585526001600160a01b03821695600160a01b90920460ff16949293909190830182828015610a215780601f106109f657610100808354040283529160200191610a21565b6000818152600360205260408120805460609290610b6557fe5b9060005260206000209060070201600601805480602002602001604051908101604052809291908181526020018280548015610bca57602002820191906000526020600020905b81546001600160a01b03168152600190910190602001808311610bac575b505050505090505b919050565b610bdf61109b565b6001600160a01b0383166000908152600260205260409020805483908110610c0357fe5b9060005260206000209060030201604051806060016040529081600082015481526020016001820154815260200160028201548152505090505b92915050565b60045481565b610c516110bc565b6040518060a00160405280866001600160a01b03168152602001856007811115610c7757fe5b815260208082018690526040808301869052600060609093018390526004548352828252909120825181546001600160a01b0319166001600160a01b03909116178082559183015192935083929091829060ff60a01b1916600160a01b836007811115610ce057fe5b021790555060408201518051610d009160018401916020909101906110ec565b5060608201518051610d1c9160028401916020909101906110ec565b50608091909101516003909101556001600160a01b038581166000908152600160209081526040909120835181546001600160a01b03191693169290921780835590830151839291829060ff60a01b1916600160a01b836007811115610d7e57fe5b021790555060408201518051610d9e9160018401916020909101906110ec565b5060608201518051610dba9160028401916020909101906110ec565b50608091909101516003909101556004805460010190556040517fe877405d40b6278a753d8816f6aca4c9a908238e8bd4f27a51376e4f72c4a1ff9061095f908790879087908790600090611783565b610e126110bc565b60008281526020818152604091829020825160a0810190935280546001600160a01b03811684529091830190600160a01b900460ff166007811115610e5357fe5b6007811115610e5e57fe5b8152602001600182018054600181600116156101000203166002900480601f016020809104026020016040519081016040528092919081815260200182805460018160011615610100020316600290048015610efb5780601f10610ed057610100808354040283529160200191610efb565b820191906000526020600020905b815481529060010190602001808311610ede57829003601f168201915b5050509183525050600282810180546040805160206001841615610100026000190190931694909404601f81018390048302850183019091528084529381019390830182828015610f8d5780601f10610f6257610100808354040283529160200191610f8d565b820191906000526020600020905b815481529060010190602001808311610f7057829003601f168201915b505050505081526020016003820154815250509050919050565b600080805b6020811015610fe05780600101602060ff160360080260020a848260208110610fd157fe5b1a029190910190600101610fac565b5092915050565b6040518060e0016040528060006001600160a01b031681526020016000815260200160008152602001600081526020016000815260200160006001600160a01b03168152602001606081525090565b82805482825590600052602060002090810192821561108b579160200282015b8281111561108b57825182546001600160a01b0319166001600160a01b03909116178255602090920191600190910190611056565b50611097929150611166565b5090565b60405180606001604052806000815260200160008152602001600081525090565b6040805160a081019091526000808252602082019081526020016060815260200160608152602001600081525090565b828054600181600116156101000203166002900490600052602060002090601f016020900481019282601f1061112d57805160ff191683800117855561115a565b8280016001018555821561115a579182015b8281111561115a57825182559160200191906001019061113f565b5061109792915061118d565b61118a91905b808211156110975780546001600160a01b031916815560010161116c565b90565b61118a91905b808211156110975760008155600101611193565b8035610c3d81611acc565b8035610c3d81611ae0565b600082601f8301126111ce57600080fd5b81356111e16111dc826119ff565b6119d8565b915080825260208301602083018583830111156111fd57600080fd5b611208838284611a7d565b50505092915050565b8035610c3d81611aed565b60006020828403121561122e57600080fd5b600061123a84846111a7565b949350505050565b60008060006060848603121561125757600080fd5b600061126386866111a7565b9350506020611274868287016111a7565b925050604061128586828701611211565b9150509250925092565b600080600080608085870312156112a557600080fd5b60006112b187876111a7565b94505060206112c2878288016111b2565b935050604085013567ffffffffffffffff8111156112df57600080fd5b6112eb878288016111bd565b925050606085013567ffffffffffffffff81111561130857600080fd5b611314878288016111bd565b91505092959194509250565b6000806040838503121561133357600080fd5b600061133f85856111a7565b925050602061135085828601611211565b9150509250929050565b60006020828403121561136c57600080fd5b600061123a8484611211565b6000806040838503121561138b57600080fd5b60006113978585611211565b925050602083013567ffffffffffffffff8111156113b457600080fd5b611350858286016111bd565b600080604083850312156113d357600080fd5b600061133f8585611211565b60008060008060008060c087890312156113f857600080fd5b60006114048989611211565b965050602061141589828a01611211565b955050604061142689828a01611211565b945050606061143789828a01611211565b935050608061144889828a01611211565b92505060a061145989828a01611211565b9150509295509295509295565b6000611472838361147a565b505060200190565b61148381611a46565b82525050565b600061149482611a39565b61149e8185611a3d565b93506114a983611a27565b8060005b838110156114d75781516114c18882611466565b97506114cc83611a27565b9250506001016114ad565b509495945050505050565b61148381611a67565b61148381611a72565b60006114ff82611a39565b6115098185611a3d565b9350611519818560208601611a89565b61152281611ab5565b9093019392505050565b600081546001811660008114611549576001811461156f576115ae565b607f600283041661155a8187611a3d565b60ff19841681529550506020850192506115ae565b6002820461157d8187611a3d565b955061158885611a2d565b60005b828110156115a75781548882015260019091019060200161158b565b8701945050505b505092915050565b60006115c3600183611a3d565b600160fd1b815260200192915050565b60006115e0601f83611a3d565b7f4f6e6c79204d616e7566616374657265722063616e2061646420426174636800815260200192915050565b6000611619602d83611a3d565b7f4261746368206973206e6f74206173736f63696174656420776974682061636381526c1bdd5b9d081c1c9bdd9a591959609a1b602082015260400192915050565b6000611668602283611a3d565b7f4f6e6c79204d616e7566616374657265722063616e20616464206d65646963698152616e6560f01b602082015260400192915050565b805160608301906116b08482611752565b5060208201516116c36020850182611752565b5060408201516116d66040850182611752565b50505050565b805160009060a08401906116f0858261147a565b50602083015161170360208601826114e2565b506040830151848203604086015261171b82826114f4565b9150506060830151848203606086015261173582826114f4565b915050608083015161174a6080860182611752565b509392505050565b6114838161118a565b60608101611769828661147a565b611776602083018561147a565b61123a6040830184611752565b60a08101611791828861147a565b61179e60208301876114e2565b81810360408301526117b081866114f4565b905081810360608301526117c481856114f4565b90506117d360808301846114eb565b9695505050505050565b60a081016117eb828861147a565b6117f860208301876114e2565b818103604083015261180a81866114f4565b9050818103606083015261181e81856114f4565b90506117d36080830184611752565b60c0810161183b828961147a565b6118486020830188611752565b6118556040830187611752565b6118626060830186611752565b61186f6080830185611752565b61187c60a083018461147a565b979650505050505050565b60e08101611895828a61147a565b6118a26020830189611752565b6118af6040830188611752565b6118bc6060830187611752565b6118c96080830186611752565b6118d660a083018561147a565b81810360c08301526118e88184611489565b9998505050505050505050565b602080825281016119068184611489565b9392505050565b6060808252810161191e818561152c565b90508181036020830152611931816115b6565b9050818103604083015261123a81846114f4565b60208082528101610c3d816115d3565b60208082528101610c3d8161160c565b60208082528101610c3d8161165b565b60608101610c3d828461169f565b6020808252810161190681846116dc565b60208101610c3d8284611752565b604081016119b08285611752565b611906602083018461147a565b606081016119cb8286611752565b6117766020830185611752565b60405181810167ffffffffffffffff811182821017156119f757600080fd5b604052919050565b600067ffffffffffffffff821115611a1657600080fd5b506020601f91909101601f19160190565b60200190565b60009081526020902090565b5190565b90815260200190565b6000610c3d82611a5b565b80610bd281611abf565b6001600160a01b031690565b6000610c3d82611a51565b6000610c3d8261118a565b82818337506000910152565b60005b83811015611aa4578181015183820152602001611a8c565b838111156116d65750506000910152565b601f01601f191690565b60088110611ac957fe5b50565b611ad581611a46565b8114611ac957600080fd5b60088110611ac957600080fd5b611ad58161118a56fea365627a7a72315820fc1f65a96c78c2c294fc1bd0492b1499525a616429a590c985fb493fb1f109a46c6578706572696d656e74616cf564736f6c63430005100040",
  "source": "// SPDX-License-Identifier: MIT\n/*\nFor Pharmaceutical Supply Chain\nstakeHolders\n- Manufacterer\n- Distributer\n- Wholeseller\n- Retailer (Pharmacist)\n- Consumer (Patient)* [to be link with medication txn]\n*/\npragma solidity >=0.4.22 <0.9.0;\npragma experimental ABIEncoderV2;\n\ncontract PharmaChain {\n    enum Roles {\n        MANUFACTERER, // add\n        DISTRIBUTER, // ownershiptransfer\n        WHOLESELLER, // ownershiptransfer\n        PHARMCIST, // ownershiptransfer\n        PATIENT, // MajorOwner\n        DOCTOR, // view+add\n        LAB, // add\n        RESEARCHER // view\n    }\n\n    struct Medicine {\n        address manId; // Manufacturer Id\n        uint256 BatchId;\n        uint256 price;\n        uint256 expDate;\n        uint256 mfgDate;\n        address owner;\n        address[] owners; // current and all past owners\n    }\n\n    struct StakeHolder {\n        address acctAdd;\n        Roles role;\n        string licNo; // Unique\n        string orgName;\n        uint256 totalBatch;\n    }\n\n    struct Batch {\n        uint256 BatchId;\n        uint256 Qty;\n        uint256 batchId;\n    }\n\n    modifier ownSome(address _add, uint256 batchId) {\n        for (uint256 i = 0; i < medicines[batchId][0].owners.length; i++) {\n            if (medicines[batchId][0].owners[i] == _add) {\n                _;\n            }\n        }\n        revert(\"Batch is not associated with account provided\");\n        _;\n    }\n\n    mapping(uint256 => StakeHolder) public stakeHolders;\n    mapping(address => StakeHolder) public stakeholders;\n    mapping(address => Batch[]) public batches;\n    mapping(uint256 => Medicine[]) public medicines;\n\n    uint256 public stakeHolderCount = 0;\n    \n\n    event StakeHolderadded(\n        address acctAdd,\n        Roles _role,\n        string _licNo,\n        string _orgName,\n        uint256 totalBatch\n    );\n\n    event BatchAdded(\n        uint256 BathID,\n        address byMan\n    );\n\n    event medicineAdded(\n        address manId,\n        uint256 BatchId,\n        uint256 price,\n        uint256 expDate,\n        uint256 mfgDate,\n        address owner,\n        address[] owners\n    );\n\n    event ownershipTransfer(\n        address _currentOwner,\n        address _newOwner,\n        uint256 _batchId\n    );\n\n    function addParticipant(\n        address _acctAdd,\n        Roles _role,\n        string memory _licNo,\n        string memory _orgName\n    ) public {\n        StakeHolder memory _participant = StakeHolder(\n            _acctAdd,\n            _role,\n            _licNo,\n            _orgName,\n            0\n        );\n        stakeHolders[stakeHolderCount] = _participant;\n        stakeholders[_acctAdd] = _participant;\n\n        stakeHolderCount++;\n        emit StakeHolderadded(_acctAdd, _role, _licNo, _orgName, 0);\n    }\n\n    function bytesToUint(bytes32 b) internal pure returns (uint256){\n            uint256 number;\n            for(uint i=0;i<b.length;i++){\n                number = number + uint(uint8(b[i]))*(2**(8*(b.length-(i+1))));\n            }\n        return number;\n    }\n\n    function addBatch(uint256 _shID, string memory medname) public {\n        require(\n            stakeHolders[_shID].role == Roles.MANUFACTERER,\n            \"Only Manufacterer can add Batch\"\n        );\n        bytes32 _BatchId = keccak256(\n            abi.encode(stakeHolders[_shID].licNo, \" \", medname)\n        );\n        uint256 _BatchIdd = bytesToUint(_BatchId);\n        uint256 _batchId = batches[stakeHolders[_shID].acctAdd].length;\n        Batch memory newBatch = Batch({\n            BatchId: _BatchIdd,\n            Qty: 0,\n            batchId: _batchId\n        });\n        batches[stakeHolders[_shID].acctAdd].push(newBatch);\n        stakeHolders[_shID].totalBatch++;\n        emit BatchAdded(_BatchIdd, stakeHolders[_shID].acctAdd);\n    }\n\n    function addMedicine(\n        uint256 _shID,\n        uint256 _bId,\n        uint256 BatchId,\n        uint256 price,\n        uint256 _expDate,\n        uint256 _mfgDate\n    ) public {\n        require(\n            stakeHolders[_shID].role == Roles.MANUFACTERER,\n            \"Only Manufacterer can add medicine\"\n        );\n        address[] memory _ownersAssociated = new address[](1);\n        _ownersAssociated[0] = stakeHolders[_shID].acctAdd;\n        Medicine memory newMedicine = Medicine(\n            stakeHolders[_shID].acctAdd,\n            BatchId,\n            price,\n            _expDate,\n            _mfgDate,\n            stakeHolders[_shID].acctAdd,\n            _ownersAssociated\n        );\n        medicines[batches[stakeHolders[_shID].acctAdd][_bId].BatchId].push(\n            newMedicine\n        );\n        batches[stakeHolders[_shID].acctAdd][_bId].Qty++; \n        emit medicineAdded(\n            stakeHolders[_shID].acctAdd,\n            BatchId,\n            price,\n            _expDate,\n            _mfgDate,\n            stakeHolders[_shID].acctAdd,\n            _ownersAssociated\n        );\n    }\n\n    function ownerTransfer(\n        address _currentOwner,\n        address _newOwner,\n        uint256 _batchId\n    ) public ownSome(_currentOwner, _batchId) {\n        for (uint256 i = 0; i < medicines[_batchId].length; i++) {\n            medicines[_batchId][i].owner = _newOwner;\n            medicines[_batchId][i].owners.push(_newOwner);\n        }\n        emit ownershipTransfer(_currentOwner, _newOwner, _batchId);\n    }\n\n    function getStakeHolder(uint256 _id) public view returns(StakeHolder memory) {\n        return stakeHolders[_id];\n    }\n\n    function getBatches(address _manAdd, uint256 _id) public view returns(Batch memory) {\n        return batches[_manAdd][_id];\n    }\n\n    function getHistory(uint256 _bid) public view returns (address[] memory) {\n        return medicines[_bid][0].owners;\n    }\n\n    constructor() public {\n        addParticipant(msg.sender, Roles.MANUFACTERER, \"Testoo1\", \"Admin\");\n        addBatch(0, \"Test\");\n        uint256 dummy = batches[msg.sender][0].BatchId;\n        addMedicine(0, 0, dummy, 1, 1, 1);\n    }\n}\n",
  "sourcePath": "/Users/abhishek/Desktop/Innocodathone/contracts/PharmaChain.sol",
  "compiler": {
    "name": "solc",
    "version": "0.5.16+commit.9c3226ce.Emscripten.clang"
  },
  "schemaVersion": "3.4.16",
  "updatedAt": "2024-05-11T00:18:56.280Z",
  "networkType": "ethereum",
  "devdoc": {
    "methods": {}
  },
  "userdoc": {
    "methods": {}
  }
}