{
  "contractName": "SupplyChain",
  "abi": [
    {
      "constant": true,
      "inputs": [
        {
          "internalType": "string",
          "name": "",
          "type": "string"
        }
      ],
      "name": "batches",
      "outputs": [
        {
          "internalType": "bool",
          "name": "exists",
          "type": "bool"
        },
        {
          "internalType": "string",
          "name": "batchID",
          "type": "string"
        },
        {
          "internalType": "string",
          "name": "productSpecID",
          "type": "string"
        },
        {
          "internalType": "uint256",
          "name": "manufactureDate",
          "type": "uint256"
        },
        {
          "internalType": "string",
          "name": "lotNumber",
          "type": "string"
        },
        {
          "internalType": "bytes32",
          "name": "ipfsHash",
          "type": "bytes32"
        },
        {
          "internalType": "address",
          "name": "manufacturer",
          "type": "address"
        }
      ],
      "payable": false,
      "stateMutability": "view",
      "type": "function"
    },
    {
      "constant": true,
      "inputs": [
        {
          "internalType": "string",
          "name": "",
          "type": "string"
        }
      ],
      "name": "medicationInstances",
      "outputs": [
        {
          "internalType": "bool",
          "name": "exists",
          "type": "bool"
        },
        {
          "internalType": "string",
          "name": "medicationInstanceID",
          "type": "string"
        },
        {
          "internalType": "string",
          "name": "batchID",
          "type": "string"
        },
        {
          "internalType": "address",
          "name": "patient",
          "type": "address"
        },
        {
          "internalType": "uint256",
          "name": "expiryDate",
          "type": "uint256"
        },
        {
          "internalType": "bool",
          "name": "dispensed",
          "type": "bool"
        }
      ],
      "payable": false,
      "stateMutability": "view",
      "type": "function"
    },
    {
      "constant": true,
      "inputs": [
        {
          "internalType": "string",
          "name": "",
          "type": "string"
        }
      ],
      "name": "products",
      "outputs": [
        {
          "internalType": "bool",
          "name": "exists",
          "type": "bool"
        },
        {
          "internalType": "string",
          "name": "productSpecID",
          "type": "string"
        },
        {
          "internalType": "string",
          "name": "productName",
          "type": "string"
        },
        {
          "internalType": "string",
          "name": "dosageForm",
          "type": "string"
        },
        {
          "internalType": "uint256",
          "name": "strength",
          "type": "uint256"
        }
      ],
      "payable": false,
      "stateMutability": "view",
      "type": "function"
    },
    {
      "constant": false,
      "inputs": [
        {
          "internalType": "string",
          "name": "productSpecID",
          "type": "string"
        },
        {
          "internalType": "string",
          "name": "productName",
          "type": "string"
        },
        {
          "internalType": "string",
          "name": "dosageForm",
          "type": "string"
        },
        {
          "internalType": "uint256",
          "name": "strength",
          "type": "uint256"
        }
      ],
      "name": "addProduct",
      "outputs": [],
      "payable": false,
      "stateMutability": "nonpayable",
      "type": "function"
    },
    {
      "constant": false,
      "inputs": [
        {
          "internalType": "string",
          "name": "batchID",
          "type": "string"
        },
        {
          "internalType": "string",
          "name": "productSpecID",
          "type": "string"
        },
        {
          "internalType": "uint256",
          "name": "manufactureDate",
          "type": "uint256"
        },
        {
          "internalType": "string",
          "name": "lotNumber",
          "type": "string"
        },
        {
          "internalType": "bytes32",
          "name": "ipfsHash",
          "type": "bytes32"
        },
        {
          "internalType": "address",
          "name": "manufacturer",
          "type": "address"
        }
      ],
      "name": "addBatch",
      "outputs": [],
      "payable": false,
      "stateMutability": "nonpayable",
      "type": "function"
    },
    {
      "constant": false,
      "inputs": [
        {
          "internalType": "string",
          "name": "medicationInstanceID",
          "type": "string"
        },
        {
          "internalType": "string",
          "name": "batchID",
          "type": "string"
        },
        {
          "internalType": "address",
          "name": "patient",
          "type": "address"
        },
        {
          "internalType": "uint256",
          "name": "expiryDate",
          "type": "uint256"
        }
      ],
      "name": "dispenseMedication",
      "outputs": [],
      "payable": false,
      "stateMutability": "nonpayable",
      "type": "function"
    }
  ],
  "bytecode": "0x608060405234801561001057600080fd5b50611630806100206000396000f3fe608060405234801561001057600080fd5b50600436106100625760003560e01c80630186a423146100675780631072a0fa146102615780631d0b9fc0146103d5578063434e19cf1461059b5780637ef1446a146106d25780638165fed5146108ec575b600080fd5b61010b6004803603602081101561007d57600080fd5b810190602081018135600160201b81111561009757600080fd5b8201836020820111156100a957600080fd5b803590602001918460018302840111600160201b831117156100ca57600080fd5b91908080601f016020809104026020016040519081016040528093929190818152602001838380828437600092019190915250929550610a9c945050505050565b6040518086151515158152602001806020018060200180602001858152602001848103845288818151815260200191508051906020019080838360005b83811015610160578181015183820152602001610148565b50505050905090810190601f16801561018d5780820380516001836020036101000a031916815260200191505b50848103835287518152875160209182019189019080838360005b838110156101c05781810151838201526020016101a8565b50505050905090810190601f1680156101ed5780820380516001836020036101000a031916815260200191505b50848103825286518152865160209182019188019080838360005b83811015610220578181015183820152602001610208565b50505050905090810190601f16801561024d5780820380516001836020036101000a031916815260200191505b509850505050505050505060405180910390f35b6103056004803603602081101561027757600080fd5b810190602081018135600160201b81111561029157600080fd5b8201836020820111156102a357600080fd5b803590602001918460018302840111600160201b831117156102c457600080fd5b91908080601f016020809104026020016040519081016040528093929190818152602001838380828437600092019190915250929550610c7d945050505050565b60405180871515151581526020018060200180602001866001600160a01b03166001600160a01b0316815260200185815260200184151515158152602001838103835288818151815260200191508051906020019080838360005b83811015610378578181015183820152602001610360565b50505050905090810190601f1680156103a55780820380516001836020036101000a031916815260200191505b50838103825287518152875160209182019189019080838360008315610220578181015183820152602001610208565b610599600480360360c08110156103eb57600080fd5b810190602081018135600160201b81111561040557600080fd5b82018360208201111561041757600080fd5b803590602001918460018302840111600160201b8311171561043857600080fd5b91908080601f0160208091040260200160405190810160405280939291908181526020018383808284376000920191909152509295949360208101935035915050600160201b81111561048a57600080fd5b82018360208201111561049c57600080fd5b803590602001918460018302840111600160201b831117156104bd57600080fd5b91908080601f01602080910402602001604051908101604052809392919081815260200183838082843760009201919091525092958435959094909350604081019250602001359050600160201b81111561051757600080fd5b82018360208201111561052957600080fd5b803590602001918460018302840111600160201b8311171561054a57600080fd5b91908080601f01602080910402602001604051908101604052809392919081815260200183838082843760009201919091525092955050823593505050602001356001600160a01b0316610de7565b005b610599600480360360808110156105b157600080fd5b810190602081018135600160201b8111156105cb57600080fd5b8201836020820111156105dd57600080fd5b803590602001918460018302840111600160201b831117156105fe57600080fd5b91908080601f0160208091040260200160405190810160405280939291908181526020018383808284376000920191909152509295949360208101935035915050600160201b81111561065057600080fd5b82018360208201111561066257600080fd5b803590602001918460018302840111600160201b8311171561068357600080fd5b91908080601f016020809104026020016040519081016040528093929190818152602001838380828437600092019190915250929550506001600160a01b038335169350505060200135610f29565b610776600480360360208110156106e857600080fd5b810190602081018135600160201b81111561070257600080fd5b82018360208201111561071457600080fd5b803590602001918460018302840111600160201b8311171561073557600080fd5b91908080601f0160208091040260200160405190810160405280939291908181526020018383808284376000920191909152509295506111e6945050505050565b6040518088151515158152602001806020018060200187815260200180602001868152602001856001600160a01b03166001600160a01b0316815260200184810384528a818151815260200191508051906020019080838360005b838110156107e95781810151838201526020016107d1565b50505050905090810190601f1680156108165780820380516001836020036101000a031916815260200191505b5084810383528951815289516020918201918b019080838360005b83811015610849578181015183820152602001610831565b50505050905090810190601f1680156108765780820380516001836020036101000a031916815260200191505b50848103825287518152875160209182019189019080838360005b838110156108a9578181015183820152602001610891565b50505050905090810190601f1680156108d65780820380516001836020036101000a031916815260200191505b509a505050505050505050505060405180910390f35b6105996004803603608081101561090257600080fd5b810190602081018135600160201b81111561091c57600080fd5b82018360208201111561092e57600080fd5b803590602001918460018302840111600160201b8311171561094f57600080fd5b91908080601f0160208091040260200160405190810160405280939291908181526020018383808284376000920191909152509295949360208101935035915050600160201b8111156109a157600080fd5b8201836020820111156109b357600080fd5b803590602001918460018302840111600160201b831117156109d457600080fd5b91908080601f0160208091040260200160405190810160405280939291908181526020018383808284376000920191909152509295949360208101935035915050600160201b811115610a2657600080fd5b820183602082011115610a3857600080fd5b803590602001918460018302840111600160201b83111715610a5957600080fd5b91908080601f01602080910402602001604051908101604052809392919081815260200183838082843760009201919091525092955050913592506113df915050565b805160208183018101805160008252928201938201939093209190925280546001808301805460408051600261010095841615959095026000190190921693909304601f810187900487028201870190935282815260ff90931694909190830182828015610b4b5780601f10610b2057610100808354040283529160200191610b4b565b820191906000526020600020905b815481529060010190602001808311610b2e57829003601f168201915b50505060028085018054604080516020601f6000196101006001871615020190941695909504928301859004850281018501909152818152959695945090925090830182828015610bdd5780601f10610bb257610100808354040283529160200191610bdd565b820191906000526020600020905b815481529060010190602001808311610bc057829003601f168201915b5050505060038301805460408051602060026001851615610100026000190190941693909304601f8101849004840282018401909252818152949594935090830182828015610c6d5780601f10610c4257610100808354040283529160200191610c6d565b820191906000526020600020905b815481529060010190602001808311610c5057829003601f168201915b5050505050908060040154905085565b80516020818301810180516002808352938301948301949094209390528254600180850180546040805161010094831615949094026000190190911695909504601f810185900485028301850190955284825260ff90921694939092830182828015610d2a5780601f10610cff57610100808354040283529160200191610d2a565b820191906000526020600020905b815481529060010190602001808311610d0d57829003601f168201915b50505060028085018054604080516020601f6000196101006001871615020190941695909504928301859004850281018501909152818152959695945090925090830182828015610dbc5780601f10610d9157610100808354040283529160200191610dbc565b820191906000526020600020905b815481529060010190602001808311610d9f57829003601f168201915b505050506003830154600484015460059094015492936001600160a01b039091169290915060ff1686565b6040518060e00160405280600115158152602001878152602001868152602001858152602001848152602001838152602001826001600160a01b03168152506001876040518082805190602001908083835b60208310610e585780518252601f199092019160209182019101610e39565b51815160209384036101000a60001901801990921691161790529201948552506040519384900381019093208451815460ff19169015151781558484015180519194610eac945060018601935001906114db565b5060408201518051610ec89160028401916020909101906114db565b506060820151600382015560808201518051610eee9160048401916020909101906114db565b5060a0820151600582015560c090910151600690910180546001600160a01b0319166001600160a01b03909216919091179055505050505050565b6001836040518082805190602001908083835b60208310610f5b5780518252601f199092019160209182019101610f3c565b51815160209384036101000a600019018019909216911617905292019485525060405193849003019092205460ff169150610fd69050576040805162461bcd60e51b815260206004820152601460248201527310985d18da08191bd95cc81b9bdd08195e1a5cdd60621b604482015290519081900360640190fd5b604080516001808252818301909252606091602080830190803883390190505090506001846040518082805190602001908083835b6020831061102a5780518252601f19909201916020918201910161100b565b51815160209384036101000a600019018019909216911617905292019485525060405193849003019092206006015483516001600160a01b03909116925083915060009061107457fe5b60200260200101906001600160a01b031690816001600160a01b0316815250506040518060e00160405280600115158152602001868152602001858152602001846001600160a01b03168152602001838152602001600115158152602001828152506002866040518082805190602001908083835b602083106111085780518252601f1990920191602091820191016110e9565b51815160209384036101000a60001901801990921691161790529201948552506040519384900381019093208451815460ff1916901515178155848401518051919461115c945060018601935001906114db565b50604082015180516111789160028401916020909101906114db565b5060608201516003820180546001600160a01b0319166001600160a01b039092169190911790556080820151600482015560a082015160058201805460ff191691151591909117905560c082015180516111dc916006840191602090910190611559565b5050505050505050565b8051808201602090810180516001808352938301948301949094209390528254838301805460408051601f600260001998851615610100029890980190931696909604918201859004850286018501905280855260ff9092169493929091908301828280156112965780601f1061126b57610100808354040283529160200191611296565b820191906000526020600020905b81548152906001019060200180831161127957829003601f168201915b50505060028085018054604080516020601f60001961010060018716150201909416959095049283018590048502810185019091528181529596959450909250908301828280156113285780601f106112fd57610100808354040283529160200191611328565b820191906000526020600020905b81548152906001019060200180831161130b57829003601f168201915b50505050600383015460048401805460408051602060026001851615610100026000190190941693909304601f810184900484028201840190925281815295969395939450908301828280156113bf5780601f10611394576101008083540402835291602001916113bf565b820191906000526020600020905b8154815290600101906020018083116113a257829003601f168201915b5050505060058301546006909301549192916001600160a01b0316905087565b6040518060a00160405280600115158152602001858152602001848152602001838152602001828152506000856040518082805190602001908083835b6020831061143b5780518252601f19909201916020918201910161141c565b51815160209384036101000a60001901801990921691161790529201948552506040519384900381019093208451815460ff1916901515178155848401518051919461148f945060018601935001906114db565b50604082015180516114ab9160028401916020909101906114db565b50606082015180516114c79160038401916020909101906114db565b506080820151816004015590505050505050565b828054600181600116156101000203166002900490600052602060002090601f016020900481019282601f1061151c57805160ff1916838001178555611549565b82800160010185558215611549579182015b8281111561154957825182559160200191906001019061152e565b506115559291506115ba565b5090565b8280548282559060005260206000209081019282156115ae579160200282015b828111156115ae57825182546001600160a01b0319166001600160a01b03909116178255602090920191600190910190611579565b506115559291506115d7565b6115d491905b8082111561155557600081556001016115c0565b90565b6115d491905b808211156115555780546001600160a01b03191681556001016115dd56fea265627a7a7231582069ecef2ba5c36d2fffbed4cdbdf343eef01d941f210f98bfde2de7d9a761538864736f6c63430005100032",
  "source": "// SPDX-License-Identifier: MIT\npragma solidity >=0.4.22 <0.9.0;\n\ncontract SupplyChain {\n    struct Product {\n        bool exists;\n        string productSpecID;\n        string productName;\n        string dosageForm;\n        uint strength;\n    }\n\n    struct Batch {\n        bool exists;\n        string batchID;\n        string productSpecID;\n        uint manufactureDate;\n        string lotNumber;\n        bytes32 ipfsHash; // IPFS hash of health record\n        address manufacturer; // Address of the manufacturer\n    }\n    \n    struct MedicationInstance {\n        bool exists;\n        string medicationInstanceID;\n        string batchID;\n        address patient;\n        uint expiryDate;\n        bool dispensed;\n        address[] originHistory; // List of addresses representing the origin history\n    }\n\n    mapping(string => Product) public products;\n    mapping(string => Batch) public batches;\n    mapping(string => MedicationInstance) public medicationInstances;\n    \n    function addProduct(string memory productSpecID, string memory productName, string memory dosageForm, uint strength) public {\n        products[productSpecID] = Product(true, productSpecID, productName, dosageForm, strength);\n    }\n\n    function addBatch(string memory batchID, string memory productSpecID, uint manufactureDate, string memory lotNumber, bytes32 ipfsHash, address manufacturer) public {\n        batches[batchID] = Batch(true, batchID, productSpecID, manufactureDate, lotNumber, ipfsHash, manufacturer);\n    }\n    \n    function dispenseMedication(string memory medicationInstanceID, string memory batchID, address patient, uint expiryDate) public {\n        require(batches[batchID].exists, \"Batch does not exist\");\n        \n        address[] memory originHistory = new address[](1);\n        originHistory[0] = batches[batchID].manufacturer;\n        \n        medicationInstances[medicationInstanceID] = MedicationInstance(true, medicationInstanceID, batchID, patient, expiryDate, true, originHistory);\n    }\n    \n}\n",
  "sourcePath": "/Users/abhishek/Desktop/Innocodathone/contracts/SupplyChain.sol",
  "compiler": {
    "name": "solc",
    "version": "0.5.16+commit.9c3226ce.Emscripten.clang"
  },
  "schemaVersion": "3.4.16",
  "updatedAt": "2024-05-10T14:03:36.308Z",
  "networkType": "ethereum",
  "devdoc": {
    "methods": {}
  },
  "userdoc": {
    "methods": {}
  }
}