{
  "contractName": "Tracking",
  "abi": [
    {
      "constant": true,
      "inputs": [
        {
          "internalType": "address",
          "name": "",
          "type": "address"
        },
        {
          "internalType": "uint256",
          "name": "",
          "type": "uint256"
        }
      ],
      "name": "shippments",
      "outputs": [
        {
          "internalType": "address",
          "name": "sender",
          "type": "address"
        },
        {
          "internalType": "address",
          "name": "reciever",
          "type": "address"
        },
        {
          "internalType": "uint256",
          "name": "pickupTime",
          "type": "uint256"
        },
        {
          "internalType": "uint256",
          "name": "delivryTime",
          "type": "uint256"
        },
        {
          "internalType": "uint256",
          "name": "distance",
          "type": "uint256"
        },
        {
          "internalType": "uint256",
          "name": "price",
          "type": "uint256"
        },
        {
          "internalType": "enum Tracking.ShippmentStatus",
          "name": "status",
          "type": "uint8"
        },
        {
          "internalType": "bool",
          "name": "ispaid",
          "type": "bool"
        }
      ],
      "payable": false,
      "stateMutability": "view",
      "type": "function"
    }
  ],
  "bytecode": "0x608060405234801561001057600080fd5b5061017b806100206000396000f3fe608060405234801561001057600080fd5b506004361061002b5760003560e01c80637733a46f14610030575b600080fd5b61005c6004803603604081101561004657600080fd5b506001600160a01b0381351690602001356100d6565b60405180896001600160a01b03166001600160a01b03168152602001886001600160a01b03166001600160a01b031681526020018781526020018681526020018581526020018481526020018360028111156100b457fe5b60ff168152911515602083015250604080519182900301975095505050505050f35b600060205281600052604060002081815481106100ef57fe5b600091825260209091206007909102018054600182015460028301546003840154600485015460058601546006909601546001600160a01b0395861698509490931695509093909260ff808216916101009004168856fea265627a7a723158205449ac94b84dd82695ab1fa4cc648829f9e176da3cc2fde023dd5a06c4729c4464736f6c63430005100032",
  "source": "// SPDX-License-Identifier: MIT\npragma solidity >=0.4.22 <0.9.0;\n\ncontract Tracking {\n    enum ShippmentStatus {Pending, IN_TRANSMIT, DELIVERED}\n    struct Shippment { // Table Structure\n        address sender;\n        address reciever;\n        uint pickupTime;\n        uint delivryTime;\n        uint distance;\n        uint price;\n        ShippmentStatus status;\n        bool ispaid;\n    }\n\n    mapping(address => Shippment[]) public shippments;\n\n}",
  "sourcePath": "/Users/abhishek/Desktop/Innocodathone/contracts/Tracking.sol",
  "compiler": {
    "name": "solc",
    "version": "0.5.16+commit.9c3226ce.Emscripten.clang"
  },
  "schemaVersion": "3.4.16",
  "updatedAt": "2024-05-10T06:55:25.145Z",
  "devdoc": {
    "methods": {}
  },
  "userdoc": {
    "methods": {}
  }
}