{
  "contractName": "HealthRecordSystem",
  "abi": [
    {
      "anonymous": false,
      "inputs": [
        {
          "indexed": false,
          "internalType": "uint256",
          "name": "BathID",
          "type": "uint256"
        },
        {
          "indexed": false,
          "internalType": "address",
          "name": "byMan",
          "type": "address"
        }
      ],
      "name": "BatchAdded",
      "type": "event"
    },
    {
      "anonymous": false,
      "inputs": [
        {
          "indexed": false,
          "internalType": "address",
          "name": "medicalRecordID",
          "type": "address"
        },
        {
          "indexed": false,
          "internalType": "string",
          "name": "data",
          "type": "string"
        },
        {
          "indexed": false,
          "internalType": "uint256",
          "name": "hash",
          "type": "uint256"
        }
      ],
      "name": "MedicalRecordAdded",
      "type": "event"
    },
    {
      "anonymous": false,
      "inputs": [
        {
          "indexed": false,
          "internalType": "uint256",
          "name": "patientID",
          "type": "uint256"
        },
        {
          "indexed": false,
          "internalType": "string",
          "name": "name",
          "type": "string"
        },
        {
          "indexed": false,
          "internalType": "address",
          "name": "medicalHistoryID",
          "type": "address"
        }
      ],
      "name": "PatientAdded",
      "type": "event"
    },
    {
      "anonymous": false,
      "inputs": [
        {
          "indexed": false,
          "internalType": "address",
          "name": "acctAdd",
          "type": "address"
        },
        {
          "indexed": false,
          "internalType": "enum PharmaChain.Roles",
          "name": "_role",
          "type": "uint8"
        },
        {
          "indexed": false,
          "internalType": "string",
          "name": "_licNo",
          "type": "string"
        },
        {
          "indexed": false,
          "internalType": "string",
          "name": "_orgName",
          "type": "string"
        },
        {
          "indexed": false,
          "internalType": "uint256",
          "name": "totalBatch",
          "type": "uint256"
        }
      ],
      "name": "StakeHolderadded",
      "type": "event"
    },
    {
      "anonymous": false,
      "inputs": [
        {
          "indexed": false,
          "internalType": "address",
          "name": "manId",
          "type": "address"
        },
        {
          "indexed": false,
          "internalType": "uint256",
          "name": "BatchId",
          "type": "uint256"
        },
        {
          "indexed": false,
          "internalType": "uint256",
          "name": "price",
          "type": "uint256"
        },
        {
          "indexed": false,
          "internalType": "uint256",
          "name": "expDate",
          "type": "uint256"
        },
        {
          "indexed": false,
          "internalType": "uint256",
          "name": "mfgDate",
          "type": "uint256"
        },
        {
          "indexed": false,
          "internalType": "address",
          "name": "owner",
          "type": "address"
        },
        {
          "indexed": false,
          "internalType": "address[]",
          "name": "owners",
          "type": "address[]"
        }
      ],
      "name": "medicineAdded",
      "type": "event"
    },
    {
      "anonymous": false,
      "inputs": [
        {
          "indexed": false,
          "internalType": "address",
          "name": "_currentOwner",
          "type": "address"
        },
        {
          "indexed": false,
          "internalType": "address",
          "name": "_newOwner",
          "type": "address"
        },
        {
          "indexed": false,
          "internalType": "uint256",
          "name": "_batchId",
          "type": "uint256"
        }
      ],
      "name": "ownershipTransfer",
      "type": "event"
    },
    {
      "constant": false,
      "inputs": [
        {
          "internalType": "uint256",
          "name": "_shID",
          "type": "uint256"
        },
        {
          "internalType": "string",
          "name": "medname",
          "type": "string"
        }
      ],
      "name": "addBatch",
      "outputs": [],
      "payable": false,
      "stateMutability": "nonpayable",
      "type": "function"
    },
    {
      "constant": false,
      "inputs": [
        {
          "internalType": "uint256",
          "name": "_shID",
          "type": "uint256"
        },
        {
          "internalType": "uint256",
          "name": "_bId",
          "type": "uint256"
        },
        {
          "internalType": "uint256",
          "name": "BatchId",
          "type": "uint256"
        },
        {
          "internalType": "uint256",
          "name": "price",
          "type": "uint256"
        },
        {
          "internalType": "uint256",
          "name": "_expDate",
          "type": "uint256"
        },
        {
          "internalType": "uint256",
          "name": "_mfgDate",
          "type": "uint256"
        }
      ],
      "name": "addMedicine",
      "outputs": [],
      "payable": false,
      "stateMutability": "nonpayable",
      "type": "function"
    },
    {
      "constant": false,
      "inputs": [
        {
          "internalType": "address",
          "name": "_acctAdd",
          "type": "address"
        },
        {
          "internalType": "enum PharmaChain.Roles",
          "name": "_role",
          "type": "uint8"
        },
        {
          "internalType": "string",
          "name": "_licNo",
          "type": "string"
        },
        {
          "internalType": "string",
          "name": "_orgName",
          "type": "string"
        }
      ],
      "name": "addParticipant",
      "outputs": [],
      "payable": false,
      "stateMutability": "nonpayable",
      "type": "function"
    },
    {
      "constant": true,
      "inputs": [
        {
          "internalType": "address",
          "name": "",
          "type": "address"
        },
        {
          "internalType": "uint256",
          "name": "",
          "type": "uint256"
        }
      ],
      "name": "batches",
      "outputs": [
        {
          "internalType": "uint256",
          "name": "BatchId",
          "type": "uint256"
        },
        {
          "internalType": "uint256",
          "name": "Qty",
          "type": "uint256"
        },
        {
          "internalType": "uint256",
          "name": "batchId",
          "type": "uint256"
        }
      ],
      "payable": false,
      "stateMutability": "view",
      "type": "function"
    },
    {
      "constant": true,
      "inputs": [
        {
          "internalType": "address",
          "name": "_manAdd",
          "type": "address"
        },
        {
          "internalType": "uint256",
          "name": "_id",
          "type": "uint256"
        }
      ],
      "name": "getBatches",
      "outputs": [
        {
          "components": [
            {
              "internalType": "uint256",
              "name": "BatchId",
              "type": "uint256"
            },
            {
              "internalType": "uint256",
              "name": "Qty",
              "type": "uint256"
            },
            {
              "internalType": "uint256",
              "name": "batchId",
              "type": "uint256"
            }
          ],
          "internalType": "struct PharmaChain.Batch",
          "name": "",
          "type": "tuple"
        }
      ],
      "payable": false,
      "stateMutability": "view",
      "type": "function"
    },
    {
      "constant": true,
      "inputs": [
        {
          "internalType": "uint256",
          "name": "_bid",
          "type": "uint256"
        }
      ],
      "name": "getHistory",
      "outputs": [
        {
          "internalType": "address[]",
          "name": "",
          "type": "address[]"
        }
      ],
      "payable": false,
      "stateMutability": "view",
      "type": "function"
    },
    {
      "constant": true,
      "inputs": [
        {
          "internalType": "uint256",
          "name": "_id",
          "type": "uint256"
        }
      ],
      "name": "getStakeHolder",
      "outputs": [
        {
          "components": [
            {
              "internalType": "address",
              "name": "acctAdd",
              "type": "address"
            },
            {
              "internalType": "enum PharmaChain.Roles",
              "name": "role",
              "type": "uint8"
            },
            {
              "internalType": "string",
              "name": "licNo",
              "type": "string"
            },
            {
              "internalType": "string",
              "name": "orgName",
              "type": "string"
            },
            {
              "internalType": "uint256",
              "name": "totalBatch",
              "type": "uint256"
            }
          ],
          "internalType": "struct PharmaChain.StakeHolder",
          "name": "",
          "type": "tuple"
        }
      ],
      "payable": false,
      "stateMutability": "view",
      "type": "function"
    },
    {
      "constant": true,
      "inputs": [],
      "name": "medicalRecordCount",
      "outputs": [
        {
          "internalType": "uint256",
          "name": "",
          "type": "uint256"
        }
      ],
      "payable": false,
      "stateMutability": "view",
      "type": "function"
    },
    {
      "constant": true,
      "inputs": [
        {
          "internalType": "address",
          "name": "",
          "type": "address"
        },
        {
          "internalType": "uint256",
          "name": "",
          "type": "uint256"
        }
      ],
      "name": "medicalRecords",
      "outputs": [
        {
          "internalType": "address",
          "name": "medicalRecordID",
          "type": "address"
        },
        {
          "internalType": "bool",
          "name": "exists",
          "type": "bool"
        },
        {
          "internalType": "string",
          "name": "data",
          "type": "string"
        },
        {
          "internalType": "uint256",
          "name": "hash",
          "type": "uint256"
        }
      ],
      "payable": false,
      "stateMutability": "view",
      "type": "function"
    },
    {
      "constant": true,
      "inputs": [
        {
          "internalType": "uint256",
          "name": "",
          "type": "uint256"
        },
        {
          "internalType": "uint256",
          "name": "",
          "type": "uint256"
        }
      ],
      "name": "medicines",
      "outputs": [
        {
          "internalType": "address",
          "name": "manId",
          "type": "address"
        },
        {
          "internalType": "uint256",
          "name": "BatchId",
          "type": "uint256"
        },
        {
          "internalType": "uint256",
          "name": "price",
          "type": "uint256"
        },
        {
          "internalType": "uint256",
          "name": "expDate",
          "type": "uint256"
        },
        {
          "internalType": "uint256",
          "name": "mfgDate",
          "type": "uint256"
        },
        {
          "internalType": "address",
          "name": "owner",
          "type": "address"
        }
      ],
      "payable": false,
      "stateMutability": "view",
      "type": "function"
    },
    {
      "constant": false,
      "inputs": [
        {
          "internalType": "address",
          "name": "_currentOwner",
          "type": "address"
        },
        {
          "internalType": "address",
          "name": "_newOwner",
          "type": "address"
        },
        {
          "internalType": "uint256",
          "name": "_batchId",
          "type": "uint256"
        }
      ],
      "name": "ownerTransfer",
      "outputs": [],
      "payable": false,
      "stateMutability": "nonpayable",
      "type": "function"
    },
    {
      "constant": true,
      "inputs": [],
      "name": "patientCount",
      "outputs": [
        {
          "internalType": "uint256",
          "name": "",
          "type": "uint256"
        }
      ],
      "payable": false,
      "stateMutability": "view",
      "type": "function"
    },
    {
      "constant": true,
      "inputs": [
        {
          "internalType": "address",
          "name": "",
          "type": "address"
        }
      ],
      "name": "patients",
      "outputs": [
        {
          "internalType": "uint256",
          "name": "patientID",
          "type": "uint256"
        },
        {
          "internalType": "string",
          "name": "name",
          "type": "string"
        },
        {
          "internalType": "address",
          "name": "medicalHistoryID",
          "type": "address"
        },
        {
          "internalType": "bool",
          "name": "exists",
          "type": "bool"
        }
      ],
      "payable": false,
      "stateMutability": "view",
      "type": "function"
    },
    {
      "constant": true,
      "inputs": [],
      "name": "stakeHolderCount",
      "outputs": [
        {
          "internalType": "uint256",
          "name": "",
          "type": "uint256"
        }
      ],
      "payable": false,
      "stateMutability": "view",
      "type": "function"
    },
    {
      "constant": true,
      "inputs": [
        {
          "internalType": "uint256",
          "name": "",
          "type": "uint256"
        }
      ],
      "name": "stakeHolders",
      "outputs": [
        {
          "internalType": "address",
          "name": "acctAdd",
          "type": "address"
        },
        {
          "internalType": "enum PharmaChain.Roles",
          "name": "role",
          "type": "uint8"
        },
        {
          "internalType": "string",
          "name": "licNo",
          "type": "string"
        },
        {
          "internalType": "string",
          "name": "orgName",
          "type": "string"
        },
        {
          "internalType": "uint256",
          "name": "totalBatch",
          "type": "uint256"
        }
      ],
      "payable": false,
      "stateMutability": "view",
      "type": "function"
    },
    {
      "constant": true,
      "inputs": [
        {
          "internalType": "address",
          "name": "",
          "type": "address"
        }
      ],
      "name": "stakeholders",
      "outputs": [
        {
          "internalType": "address",
          "name": "acctAdd",
          "type": "address"
        },
        {
          "internalType": "enum PharmaChain.Roles",
          "name": "role",
          "type": "uint8"
        },
        {
          "internalType": "string",
          "name": "licNo",
          "type": "string"
        },
        {
          "internalType": "string",
          "name": "orgName",
          "type": "string"
        },
        {
          "internalType": "uint256",
          "name": "totalBatch",
          "type": "uint256"
        }
      ],
      "payable": false,
      "stateMutability": "view",
      "type": "function"
    },
    {
      "constant": false,
      "inputs": [
        {
          "internalType": "string",
          "name": "_name",
          "type": "string"
        }
      ],
      "name": "addPatient",
      "outputs": [],
      "payable": false,
      "stateMutability": "nonpayable",
      "type": "function"
    },
    {
      "constant": false,
      "inputs": [
        {
          "internalType": "string",
          "name": "_data",
          "type": "string"
        },
        {
          "internalType": "address",
          "name": "medicalRecordAdd",
          "type": "address"
        },
        {
          "internalType": "address",
          "name": "patientAdd",
          "type": "address"
        }
      ],
      "name": "addMedicalRecord",
      "outputs": [],
      "payable": false,
      "stateMutability": "nonpayable",
      "type": "function"
    },
    {
      "constant": true,
      "inputs": [
        {
          "internalType": "address",
          "name": "_patientAddress",
          "type": "address"
        }
      ],
      "name": "getPatient",
      "outputs": [
        {
          "components": [
            {
              "internalType": "uint256",
              "name": "patientID",
              "type": "uint256"
            },
            {
              "internalType": "string",
              "name": "name",
              "type": "string"
            },
            {
              "internalType": "address",
              "name": "medicalHistoryID",
              "type": "address"
            },
            {
              "internalType": "bool",
              "name": "exists",
              "type": "bool"
            }
          ],
          "internalType": "struct HealthRecordSystem.Patient",
          "name": "",
          "type": "tuple"
        }
      ],
      "payable": false,
      "stateMutability": "view",
      "type": "function"
    },
    {
      "constant": true,
      "inputs": [
        {
          "internalType": "address",
          "name": "_patientAddress",
          "type": "address"
        }
      ],
      "name": "getMedicalRecord",
      "outputs": [
        {
          "components": [
            {
              "internalType": "address",
              "name": "medicalRecordID",
              "type": "address"
            },
            {
              "internalType": "bool",
              "name": "exists",
              "type": "bool"
            },
            {
              "internalType": "string",
              "name": "data",
              "type": "string"
            },
            {
              "internalType": "uint256",
              "name": "hash",
              "type": "uint256"
            }
          ],
          "internalType": "struct HealthRecordSystem.MedicalRecord[]",
          "name": "",
          "type": "tuple[]"
        }
      ],
      "payable": false,
      "stateMutability": "view",
      "type": "function"
    },
    {
      "constant": false,
      "inputs": [
        {
          "internalType": "address",
          "name": "_patientAddress",
          "type": "address"
        },
        {
          "internalType": "string",
          "name": "_data",
          "type": "string"
        },
        {
          "internalType": "uint256",
          "name": "_medID",
          "type": "uint256"
        }
      ],
      "name": "updateMedicalRecord",
      "outputs": [],
      "payable": false,
      "stateMutability": "nonpayable",
      "type": "function"
    }
  ],
  "bytecode": "0x600060048190556007608090815266546573746f6f3160c81b60a052610100604052600560c09081526420b236b4b760d91b60e0526200004c92339290916001600160e01b03620000c816565b6200007b60006040518060400160405280600481526020016315195cdd60e21b815250620002a760201b60201c565b336000908152600260205260408120805482906200009557fe5b600091825260208220600390910201549150620000c1908083600180806001600160e01b036200043616565b5062000d1d565b620000d262000709565b6040518060a00160405280866001600160a01b03168152602001856007811115620000f957fe5b815260208082018690526040808301869052600060609093018390526004548352828252909120825181546001600160a01b0319166001600160a01b03909116178082559183015192935083929091829060ff60a01b1916600160a01b8360078111156200016357fe5b0217905550604082015180516200018591600184019160209091019062000739565b5060608201518051620001a391600284019160209091019062000739565b50608091909101516003909101556001600160a01b038581166000908152600160209081526040909120835181546001600160a01b03191693169290921780835590830151839291829060ff60a01b1916600160a01b8360078111156200020657fe5b0217905550604082015180516200022891600184019160209091019062000739565b50606082015180516200024691600284019160209091019062000739565b50608091909101516003909101556004805460010190556040517fe877405d40b6278a753d8816f6aca4c9a908238e8bd4f27a51376e4f72c4a1ff906200029890879087908790879060009062000afe565b60405180910390a15050505050565b60008083815260208190526040902054600160a01b900460ff166007811115620002cd57fe5b14620002f65760405162461bcd60e51b8152600401620002ed9062000c24565b60405180910390fd5b60008281526020818152604080832090516200031b9260019092019185910162000bde565b60405160208183030381529060405280519060200120905060006200034682620006c460201b60201c565b600085815260208181526040808320546001600160a01b03168352600290915290205490915062000376620007be565b5060408051606081018252838152600060208083018281528385018681528a845283835285842080546001600160a01b03908116865260028086528887208054600181810183559189528789208a516003928302909101908155965187830155945195909101949094558c86529490935282018054909101905554925191927fc6fdee6a6ac8e97bb4ceea768bcc0b008d23dd2da36f5637ece378e8cb9abb4f9262000426928792169062000c4e565b60405180910390a1505050505050565b60008087815260208190526040902054600160a01b900460ff1660078111156200045c57fe5b146200047c5760405162461bcd60e51b8152600401620002ed9062000c3c565b6040805160018082528183019092526060916020808301908038833950505060008881526020819052604081205482519293506001600160a01b031691839190620004c357fe5b60200260200101906001600160a01b031690816001600160a01b031681525050620004ed620007df565b506040805160e08101825260008981526020818152838220546001600160a01b03168084528184018a9052838501899052606084018890526080840187905260a0840181905260c08401869052825260029052918220805491926003929091908a9081106200055857fe5b6000918252602080832060039283020154845283810194909452604092830182208054600181810180845592855293869020875160079092020180546001600160a01b039283166001600160a01b031991821617825588880151958201959095559487015160028601556060870151928501929092556080860151600485015560a086015160058501805491909316931692909217905560c0840151805191938593926200060d92600685019201906200082e565b505050600089815260208181526040808320546001600160a01b03168352600290915290208054909150889081106200064257fe5b600091825260208083206001600390930201820180549092019091558982528190526040908190205490517fea2e0da97934b93ad70759075b5f9c0bd5f2d7f9d28389cb1e13efb3eddf4f1991620006b2916001600160a01b0390911690899089908990899085908a9062000b62565b60405180910390a15050505050505050565b600080805b6020811015620007005780600101602060ff160360080260020a848260208110620006f057fe5b1a029190910190600101620006c9565b5090505b919050565b6040805160a081019091526000808252602082019081526020016060815260200160608152602001600081525090565b828054600181600116156101000203166002900490600052602060002090601f016020900481019282601f106200077c57805160ff1916838001178555620007ac565b82800160010185558215620007ac579182015b82811115620007ac5782518255916020019190600101906200078f565b50620007ba92915062000894565b5090565b60405180606001604052806000815260200160008152602001600081525090565b6040518060e0016040528060006001600160a01b031681526020016000815260200160008152602001600081526020016000815260200160006001600160a01b03168152602001606081525090565b82805482825590600052602060002090810192821562000886579160200282015b828111156200088657825182546001600160a01b0319166001600160a01b039091161782556020909201916001909101906200084f565b50620007ba929150620008b4565b620008b191905b80821115620007ba57600081556001016200089b565b90565b620008b191905b80821115620007ba5780546001600160a01b0319168155600101620008bb565b6000620008e98383620008f1565b505060200190565b620008fc8162000c93565b82525050565b60006200090f8262000c86565b6200091b818562000c8a565b9350620009288362000c74565b8060005b838110156200095c578151620009438882620008db565b9750620009508362000c74565b9250506001016200092c565b509495945050505050565b620008fc8162000cb8565b620008fc8162000cc5565b60006200098a8262000c86565b62000996818562000c8a565b9350620009a881856020860162000cd2565b620009b38162000d05565b9093019392505050565b600081546001811660008114620009dd576001811462000a065762000a4b565b607f6002830416620009f0818762000c8a565b60ff198416815295505060208501925062000a4b565b6002820462000a16818762000c8a565b955062000a238562000c7a565b60005b8281101562000a445781548882015260019091019060200162000a26565b8701945050505b505092915050565b600062000a6260018362000c8a565b600160fd1b815260200192915050565b600062000a81601f8362000c8a565b7f4f6e6c79204d616e7566616374657265722063616e2061646420426174636800815260200192915050565b600062000abc60228362000c8a565b7f4f6e6c79204d616e7566616374657265722063616e20616464206d65646963698152616e6560f01b602082015260400192915050565b620008fc81620008b1565b60a0810162000b0e8288620008f1565b62000b1d602083018762000967565b818103604083015262000b3181866200097d565b9050818103606083015262000b4781856200097d565b905062000b58608083018462000972565b9695505050505050565b60e0810162000b72828a620008f1565b62000b81602083018962000af3565b62000b90604083018862000af3565b62000b9f606083018762000af3565b62000bae608083018662000af3565b62000bbd60a0830185620008f1565b81810360c083015262000bd1818462000902565b9998505050505050505050565b6060808252810162000bf18185620009bd565b9050818103602083015262000c068162000a53565b9050818103604083015262000c1c81846200097d565b949350505050565b6020808252810162000c368162000a72565b92915050565b6020808252810162000c368162000aad565b6040810162000c5e828562000af3565b62000c6d6020830184620008f1565b9392505050565b60200190565b60009081526020902090565b5190565b90815260200190565b600062000c368262000cac565b80620007048162000d0f565b6001600160a01b031690565b600062000c368262000ca0565b600062000c3682620008b1565b60005b8381101562000cef57818101518382015260200162000cd5565b8381111562000cff576000848401525b50505050565b601f01601f191690565b6008811062000d1a57fe5b50565b612b878062000d2d6000396000f3fe608060405234801561001057600080fd5b50600436106101375760003560e01c8063a1291f7f116100b8578063d09a888a1161007c578063d09a888a146102d4578063d6dd9d4d146102f4578063decef1c2146102fc578063ec27a3971461030f578063f99f55aa14610322578063fb87cf941461034257610137565b8063a1291f7f1461024a578063acad41a41461025d578063b5368e2014610281578063c07cfca9146102a1578063c8691b2a146102b457610137565b80638d07df8f116100ff5780638d07df8f146101e45780639090de48146101f7578063911867541461020a57806397678a031461021f578063a0303c411461024257610137565b80630257c6e51461013c5780630869cfbc146101515780632fea1a6f1461017d57806349d338171461019d5780636aafa5e9146101c2575b600080fd5b61014f61014a3660046120d3565b610355565b005b61016461015f366004611e37565b6105df565b604051610174949392919061299d565b60405180910390f35b61019061018b366004611e37565b6106a2565b604051610174919061287c565b6101b06101ab3660046120b4565b61081b565b604051610174969594939291906127a3565b6101d56101d0366004611f85565b61087a565b604051610174939291906129d9565b61014f6101f236600461206c565b6108b9565b61014f610205366004611ff4565b610a2d565b610212610d9c565b6040516101749190612945565b61023261022d366004611f85565b610da2565b6040516101749493929190612685565b610212610e84565b61014f610258366004611e5d565b610e8a565b61027061026b36600461204e565b611159565b604051610174959493929190612724565b61029461028f366004611e37565b6112ae565b6040516101749190612923565b6102706102af366004611e37565b6113bf565b6102c76102c236600461204e565b611447565b604051610174919061286b565b6102e76102e2366004611f85565b6114d2565b6040516101749190612915565b61021261153e565b61014f61030a366004611f3b565b611544565b61014f61031d366004611eaa565b611711565b61033561033036600461204e565b6118d2565b6040516101749190612934565b61014f610350366004611fbf565b611a6f565b60008087815260208190526040902054600160a01b900460ff16600781111561037a57fe5b146103a05760405162461bcd60e51b815260040161039790612905565b60405180910390fd5b6040805160018082528183019092526060916020808301908038833950505060008881526020819052604081205482519293506001600160a01b0316918391906103e657fe5b60200260200101906001600160a01b031690816001600160a01b03168152505061040e611b9c565b506040805160e08101825260008981526020818152838220546001600160a01b03168084528184018a9052838501899052606084018890526080840187905260a0840181905260c08401869052825260029052918220805491926003929091908a90811061047857fe5b6000918252602080832060039283020154845283810194909452604092830182208054600181810180845592855293869020875160079092020180546001600160a01b039283166001600160a01b031991821617825588880151958201959095559487015160028601556060870151928501929092556080860151600485015560a086015160058501805491909316931692909217905560c08401518051919385939261052b9260068501920190611beb565b505050600089815260208181526040808320546001600160a01b031683526002909152902080549091508890811061055f57fe5b600091825260208083206001600390930201820180549092019091558982528190526040908190205490517fea2e0da97934b93ad70759075b5f9c0bd5f2d7f9d28389cb1e13efb3eddf4f19916105cd916001600160a01b0390911690899089908990899085908a906127fd565b60405180910390a15050505050505050565b6005602090815260009182526040918290208054600180830180548651600293821615610100026000190190911692909204601f81018690048602830186019096528582529194929390929083018282801561067c5780601f106106515761010080835404028352916020019161067c565b820191906000526020600020905b81548152906001019060200180831161065f57829003601f168201915b505050600290930154919250506001600160a01b0381169060ff600160a01b9091041684565b6001600160a01b038116600090815260056020526040902060020154606090600160a01b900460ff166106e75760405162461bcd60e51b8152600401610397906128f5565b6001600160a01b038216600090815260066020908152604080832080548251818502810185019093528083529193909284015b8282101561080f576000848152602090819020604080516080810182526003860290920180546001600160a01b0381168452600160a01b900460ff16151583850152600180820180548451600261010094831615949094026000190190911692909204601f81018790048702830187018552808352949592949386019391929091908301828280156107ed5780601f106107c2576101008083540402835291602001916107ed565b820191906000526020600020905b8154815290600101906020018083116107d057829003601f168201915b505050505081526020016002820154815250508152602001906001019061071a565b5050505090505b919050565b6003602052816000526040600020818154811061083457fe5b60009182526020909120600790910201805460018201546002830154600384015460048501546005909501546001600160a01b0394851697509295509093909290911686565b6002602052816000526040600020818154811061089357fe5b600091825260209091206003909102018054600182015460029092015490935090915083565b60008083815260208190526040902054600160a01b900460ff1660078111156108de57fe5b146108fb5760405162461bcd60e51b8152600401610397906128c5565b600082815260208181526040808320905161091e9260019092019185910161288d565b604051602081830303815290604052805190602001209050600061094182611b5c565b600085815260208181526040808320546001600160a01b03168352600290915290205490915061096f611c50565b5060408051606081018252838152600060208083018281528385018681528a845283835285842080546001600160a01b03908116865260028086528887208054600181810183559189528789208a516003928302909101908155965187830155945195909101949094558c86529490935282018054909101905554925191927fc6fdee6a6ac8e97bb4ceea768bcc0b008d23dd2da36f5637ece378e8cb9abb4f92610a1d9287921690612953565b60405180910390a1505050505050565b33600090815260056020526040902060020154600160a01b900460ff16610a665760405162461bcd60e51b8152600401610397906128f5565b600533600090815260016020526040902054600160a01b900460ff166007811115610a8d57fe5b1480610abd5750600633600090815260016020526040902054600160a01b900460ff166007811115610abb57fe5b145b80610aec5750600433600090815260016020526040902054600160a01b900460ff166007811115610aea57fe5b145b610b085760405162461bcd60e51b8152600401610397906128e5565b610b10611c71565b604080516080810182526001600160a01b03808616825260016020808401919091528284018890523360009081526005825284902060020154935192936060850193610b63939190911691899101612641565b60408051601f19818403018152919052805160209091012090529050600533600090815260016020526040902054600160a01b900460ff166007811115610ba657fe5b1415610c4f576001600160a01b03821660009081526006602052604090206008548154839291908110610bd557fe5b600091825260209182902083516003909202018054848401511515600160a01b0260ff60a01b196001600160a01b039094166001600160a01b03199092169190911792909216919091178155604083015180519192610c3c92600185019290910190611ca4565b5060608201518160020155905050610ce5565b3360009081526006602052604090206008548154839291908110610c6f57fe5b600091825260209182902083516003909202018054848401511515600160a01b0260ff60a01b196001600160a01b039094166001600160a01b03199092169190911792909216919091178155604083015180519192610cd692600185019290910190611ca4565b50606082015181600201559050505b600880546001810190915533600090815260066020526040902080547f454d8a558d144cd4e41c936f2111bc09adccc2598dc304f6fbde1f22a4e391a792908110610d2c57fe5b600091825260208083206003909202909101543383526006909152604090912060085481546001600160a01b039093169288929160001901908110610d6d57fe5b906000526020600020906003020160020154604051610d8e93929190612774565b60405180910390a150505050565b60085481565b60066020528160005260406000208181548110610dbb57fe5b60009182526020918290206003919091020180546001808301805460408051600261010095841615959095026000190190921693909304601f81018790048702820187019093528281526001600160a01b0384169750600160a01b90930460ff1695509293919291830182828015610e745780601f10610e4957610100808354040283529160200191610e74565b820191906000526020600020905b815481529060010190602001808311610e5757829003601f168201915b5050505050908060020154905084565b60075481565b828160005b60008281526003602052604081208054909190610ea857fe5b90600052602060002090600702016006018054905081101561103157600082815260036020526040812080546001600160a01b0386169290610ee657fe5b90600052602060002090600702016006018281548110610f0257fe5b6000918252602090912001546001600160a01b031614156110295760005b600085815260036020526040902054811015610fec576000858152600360205260409020805487919083908110610f5357fe5b906000526020600020906007020160050160006101000a8154816001600160a01b0302191690836001600160a01b03160217905550600360008681526020019081526020016000208181548110610fa657fe5b60009182526020808320600792909202909101600601805460018082018355918452919092200180546001600160a01b0319166001600160a01b03891617905501610f20565b507f8ac47698a92e85fe6a4de1e347b769f6d71a906c4f1accb6e43f97e516bb2b028686866040516110209392919061265d565b60405180910390a15b600101610e8f565b5060405162461bcd60e51b8152600401610397906128d5565b60008481526003602052604090205481101561111657600084815260036020526040902080548691908390811061107d57fe5b906000526020600020906007020160050160006101000a8154816001600160a01b0302191690836001600160a01b031602179055506003600085815260200190815260200160002081815481106110d057fe5b60009182526020808320600792909202909101600601805460018082018355918452919092200180546001600160a01b0319166001600160a01b0388161790550161104a565b507f8ac47698a92e85fe6a4de1e347b769f6d71a906c4f1accb6e43f97e516bb2b0285858560405161114a9392919061265d565b60405180910390a15050505050565b600060208181529181526040908190208054600180830180548551600261010094831615949094026000190190911692909204601f81018790048702830187019095528482526001600160a01b03831695600160a01b90930460ff1694919290919083018282801561120c5780601f106111e15761010080835404028352916020019161120c565b820191906000526020600020905b8154815290600101906020018083116111ef57829003601f168201915b50505060028085018054604080516020601f600019610100600187161502019094169590950492830185900485028101850190915281815295969594509092509083018282801561129e5780601f106112735761010080835404028352916020019161129e565b820191906000526020600020905b81548152906001019060200180831161128157829003601f168201915b5050505050908060030154905085565b6112b6611d1e565b60056000836001600160a01b03166001600160a01b0316815260200190815260200160002060405180608001604052908160008201548152602001600182018054600181600116156101000203166002900480601f0160208091040260200160405190810160405280929190818152602001828054600181600116156101000203166002900480156113895780601f1061135e57610100808354040283529160200191611389565b820191906000526020600020905b81548152906001019060200180831161136c57829003601f168201915b5050509183525050600291909101546001600160a01b0381166020830152600160a01b900460ff16151560409091015292915050565b600160208181526000928352604092839020805481840180548651600261010097831615979097026000190190911695909504601f81018590048502860185019096528585526001600160a01b03821695600160a01b90920460ff1694929390919083018282801561120c5780601f106111e15761010080835404028352916020019161120c565b600081815260036020526040812080546060929061146157fe5b90600052602060002090600702016006018054806020026020016040519081016040528092919081815260200182805480156114c657602002820191906000526020600020905b81546001600160a01b031681526001909101906020018083116114a8575b50505050509050919050565b6114da611c50565b6001600160a01b03831660009081526002602052604090208054839081106114fe57fe5b9060005260206000209060030201604051806060016040529081600082015481526020016001820154815260200160028201548152505090505b92915050565b60045481565b6001600160a01b038316600090815260056020526040902060020154600160a01b900460ff166115865760405162461bcd60e51b8152600401610397906128f5565b6001600160a01b03831660009081526006602052604090208054839190839081106115ad57fe5b906000526020600020906003020160010190805190602001906115d1929190611ca4565b506001600160a01b03808416600090815260056020908152604091829020600201549151611606939290921691859101612641565b60408051601f1981840301815291815281516020928301206001600160a01b03861660009081526006909352912080548390811061164057fe5b9060005260206000209060030201600201819055507f454d8a558d144cd4e41c936f2111bc09adccc2598dc304f6fbde1f22a4e391a760066000856001600160a01b03166001600160a01b0316815260200190815260200160002082815481106116a657fe5b600091825260208083206003909202909101546001600160a01b03878116845260069092526040909220805491909216918591859081106116e357fe5b90600052602060002090600302016002015460405161170493929190612774565b60405180910390a1505050565b611719611d51565b6040518060a00160405280866001600160a01b0316815260200185600781111561173f57fe5b815260208082018690526040808301869052600060609093018390526004548352828252909120825181546001600160a01b0319166001600160a01b03909116178082559183015192935083929091829060ff60a01b1916600160a01b8360078111156117a857fe5b0217905550604082015180516117c8916001840191602090910190611ca4565b50606082015180516117e4916002840191602090910190611ca4565b50608091909101516003909101556001600160a01b038581166000908152600160209081526040909120835181546001600160a01b03191693169290921780835590830151839291829060ff60a01b1916600160a01b83600781111561184657fe5b021790555060408201518051611866916001840191602090910190611ca4565b5060608201518051611882916002840191602090910190611ca4565b50608091909101516003909101556004805460010190556040517fe877405d40b6278a753d8816f6aca4c9a908238e8bd4f27a51376e4f72c4a1ff9061114a9087908790879087906000906126ca565b6118da611d51565b60008281526020818152604091829020825160a0810190935280546001600160a01b03811684529091830190600160a01b900460ff16600781111561191b57fe5b600781111561192657fe5b8152602001600182018054600181600116156101000203166002900480601f0160208091040260200160405190810160405280929190818152602001828054600181600116156101000203166002900480156119c35780601f10611998576101008083540402835291602001916119c3565b820191906000526020600020905b8154815290600101906020018083116119a657829003601f168201915b5050509183525050600282810180546040805160206001841615610100026000190190931694909404601f81018390048302850183019091528084529381019390830182828015611a555780601f10611a2a57610100808354040283529160200191611a55565b820191906000526020600020905b815481529060010190602001808311611a3857829003601f168201915b505050505081526020016003820154815250509050919050565b604080516080810182526007548152602080820184815233838501819052600160608501819052600091825260058452949020835181559051805193949193611ac093928501929190910190611ca4565b50604082810151600290920180546060909401511515600160a01b0260ff60a01b196001600160a01b039094166001600160a01b0319909516949094179290921692909217905560078054600101905533600081815260056020528290205491517f4e5d1b525fd1e629f8f3f766dae9bbf22eee19161c0d6bffc87b1e3816ece2a592611b5192909185919061296e565b60405180910390a150565b600080805b6020811015611b955780600101602060ff160360080260020a848260208110611b8657fe5b1a029190910190600101611b61565b5092915050565b6040518060e0016040528060006001600160a01b031681526020016000815260200160008152602001600081526020016000815260200160006001600160a01b03168152602001606081525090565b828054828255906000526020600020908101928215611c40579160200282015b82811115611c4057825182546001600160a01b0319166001600160a01b03909116178255602090920191600190910190611c0b565b50611c4c929150611d81565b5090565b60405180606001604052806000815260200160008152602001600081525090565b604051806080016040528060006001600160a01b0316815260200160001515815260200160608152602001600081525090565b828054600181600116156101000203166002900490600052602060002090601f016020900481019282601f10611ce557805160ff1916838001178555611d12565b82800160010185558215611d12579182015b82811115611d12578251825591602001919060010190611cf7565b50611c4c929150611da8565b6040518060800160405280600081526020016060815260200160006001600160a01b031681526020016000151581525090565b6040805160a081019091526000808252602082019081526020016060815260200160608152602001600081525090565b611da591905b80821115611c4c5780546001600160a01b0319168155600101611d87565b90565b611da591905b80821115611c4c5760008155600101611dae565b803561153881612b1a565b803561153881612b2e565b600082601f830112611de957600080fd5b8135611dfc611df782612a1b565b6129f4565b91508082526020830160208301858383011115611e1857600080fd5b611e23838284612ab4565b50505092915050565b803561153881612b3b565b600060208284031215611e4957600080fd5b6000611e558484611dc2565b949350505050565b600080600060608486031215611e7257600080fd5b6000611e7e8686611dc2565b9350506020611e8f86828701611dc2565b9250506040611ea086828701611e2c565b9150509250925092565b60008060008060808587031215611ec057600080fd5b6000611ecc8787611dc2565b9450506020611edd87828801611dcd565b935050604085013567ffffffffffffffff811115611efa57600080fd5b611f0687828801611dd8565b925050606085013567ffffffffffffffff811115611f2357600080fd5b611f2f87828801611dd8565b91505092959194509250565b600080600060608486031215611f5057600080fd5b6000611f5c8686611dc2565b935050602084013567ffffffffffffffff811115611f7957600080fd5b611e8f86828701611dd8565b60008060408385031215611f9857600080fd5b6000611fa48585611dc2565b9250506020611fb585828601611e2c565b9150509250929050565b600060208284031215611fd157600080fd5b813567ffffffffffffffff811115611fe857600080fd5b611e5584828501611dd8565b60008060006060848603121561200957600080fd5b833567ffffffffffffffff81111561202057600080fd5b61202c86828701611dd8565b935050602061203d86828701611dc2565b9250506040611ea086828701611dc2565b60006020828403121561206057600080fd5b6000611e558484611e2c565b6000806040838503121561207f57600080fd5b600061208b8585611e2c565b925050602083013567ffffffffffffffff8111156120a857600080fd5b611fb585828601611dd8565b600080604083850312156120c757600080fd5b6000611fa48585611e2c565b60008060008060008060c087890312156120ec57600080fd5b60006120f88989611e2c565b965050602061210989828a01611e2c565b955050604061211a89828a01611e2c565b945050606061212b89828a01611e2c565b935050608061213c89828a01611e2c565b92505060a061214d89828a01611e2c565b9150509295509295509295565b60006121668383612190565b505060200190565b600061217a838361251e565b9392505050565b61218a81612a88565b82525050565b61218a81612a62565b61218a6121a582612a62565b612aec565b60006121b582612a55565b6121bf8185612a59565b93506121ca83612a43565b8060005b838110156121f85781516121e2888261215a565b97506121ed83612a43565b9250506001016121ce565b509495945050505050565b600061220e82612a55565b6122188185612a59565b93508360208202850161222a85612a43565b8060005b858110156122645784840389528151612247858261216e565b945061225283612a43565b60209a909a019992505060010161222e565b5091979650505050505050565b61218a81612a6d565b61218a81612a93565b61218a81612a9e565b600061229782612a55565b6122a18185612a59565b93506122b1818560208601612ac0565b6122ba81612afd565b9093019392505050565b60006122cf82612a55565b6122d98185610816565b93506122e9818560208601612ac0565b9290920192915050565b600081546001811660008114612310576001811461233657612375565b607f60028304166123218187612a59565b60ff1984168152955050602085019250612375565b600282046123448187612a59565b955061234f85612a49565b60005b8281101561236e57815488820152600190910190602001612352565b8701945050505b505092915050565b600061238a600183612a59565b600160fd1b815260200192915050565b60006123a7601f83612a59565b7f4f6e6c79204d616e7566616374657265722063616e2061646420426174636800815260200192915050565b60006123e0602d83612a59565b7f4261746368206973206e6f74206173736f63696174656420776974682061636381526c1bdd5b9d081c1c9bdd9a591959609a1b602082015260400192915050565b600061242f602783612a59565b7f4f6e6c7920646f63746f722c206c616220706572736f6e2063616e20616464208152667265636f72647360c81b602082015260400192915050565b6000612478601683612a59565b7514185d1a595b9d08191bd95cc81b9bdd08195e1a5cdd60521b815260200192915050565b60006124aa602283612a59565b7f4f6e6c79204d616e7566616374657265722063616e20616464206d65646963698152616e6560f01b602082015260400192915050565b805160608301906124f28482612638565b5060208201516125056020850182612638565b5060408201516125186040850182612638565b50505050565b805160009060808401906125328582612190565b5060208301516125456020860182612271565b506040830151848203604086015261255d828261228c565b91505060608301516125726060860182612638565b509392505050565b8051600090608084019061258e8582612638565b50602083015184820360208601526125a6828261228c565b91505060408301516125bb6040860182612190565b5060608301516125726060860182612271565b805160009060a08401906125e28582612190565b5060208301516125f5602086018261227a565b506040830151848203604086015261260d828261228c565b91505060608301518482036060860152612627828261228c565b915050608083015161257260808601825b61218a81611da5565b600061264d8285612199565b601482019150611e5582846122c4565b6060810161266b8286612190565b6126786020830185612190565b611e556040830184612638565b608081016126938287612190565b6126a06020830186612271565b81810360408301526126b2818561228c565b90506126c16060830184612638565b95945050505050565b60a081016126d88288612190565b6126e5602083018761227a565b81810360408301526126f7818661228c565b9050818103606083015261270b818561228c565b905061271a6080830184612283565b9695505050505050565b60a081016127328288612190565b61273f602083018761227a565b8181036040830152612751818661228c565b90508181036060830152612765818561228c565b905061271a6080830184612638565b606081016127828286612190565b8181036020830152612794818561228c565b9050611e556040830184612638565b60c081016127b18289612190565b6127be6020830188612638565b6127cb6040830187612638565b6127d86060830186612638565b6127e56080830185612638565b6127f260a0830184612190565b979650505050505050565b60e0810161280b828a612190565b6128186020830189612638565b6128256040830188612638565b6128326060830187612638565b61283f6080830186612638565b61284c60a0830185612190565b81810360c083015261285e81846121aa565b9998505050505050505050565b6020808252810161217a81846121aa565b6020808252810161217a8184612203565b6060808252810161289e81856122f3565b905081810360208301526128b18161237d565b90508181036040830152611e55818461228c565b602080825281016115388161239a565b60208082528101611538816123d3565b6020808252810161153881612422565b602080825281016115388161246b565b602080825281016115388161249d565b6060810161153882846124e1565b6020808252810161217a818461257a565b6020808252810161217a81846125ce565b602081016115388284612638565b604081016129618285612638565b61217a6020830184612190565b6060810161297c8286612638565b818103602083015261298e818561228c565b9050611e556040830184612181565b608081016129ab8287612638565b81810360208301526129bd818661228c565b90506129cc6040830185612190565b6126c16060830184612271565b606081016129e78286612638565b6126786020830185612638565b60405181810167ffffffffffffffff81118282101715612a1357600080fd5b604052919050565b600067ffffffffffffffff821115612a3257600080fd5b506020601f91909101601f19160190565b60200190565b60009081526020902090565b5190565b90815260200190565b600061153882612a7c565b151590565b8061081681612b0d565b6001600160a01b031690565b600061153882612aa9565b600061153882612a72565b600061153882611da5565b600061153882612a62565b82818337506000910152565b60005b83811015612adb578181015183820152602001612ac3565b838111156125185750506000910152565b600061153882600061153882612b07565b601f01601f191690565b60601b90565b60088110612b1757fe5b50565b612b2381612a62565b8114612b1757600080fd5b60088110612b1757600080fd5b612b2381611da556fea365627a7a72315820e628a3ffb0a695210acc2d66f53f44ee5f012412db46d275830fe79297be76a96c6578706572696d656e74616cf564736f6c63430005100040",
  "source": "// SPDX-License-Identifier: MIT \npragma solidity >=0.4.22 <0.9.0;\npragma experimental ABIEncoderV2;\n\nimport \"./PharmaChain.sol\";\n\ncontract HealthRecordSystem is PharmaChain {\n    struct HealthRecord {\n        string data;\n        address patientPublicKey;\n        address doctorPublicKey;\n        bool encrypted;\n    }\n\n     struct Patient {\n        uint256 patientID;\n        string name;\n        address medicalHistoryID;\n        bool exists;\n    }\n\n    struct MedicalRecord {\n        address medicalRecordID;\n        bool exists;\n        string data;\n        uint256 hash; // Hash references Patient.medicalHistoryID\n    }\n\n    mapping(address => Patient) public patients;\n    mapping(address => MedicalRecord[]) public medicalRecords;\n\n    uint256 public patientCount;\n    uint256 public medicalRecordCount;\n\n    event PatientAdded(uint256 patientID, string name, address medicalHistoryID);\n    event MedicalRecordAdded(address medicalRecordID, string data, uint256 hash);\n\n    function addPatient(string memory _name) public {\n        patients[msg.sender] = Patient({\n            patientID: patientCount,\n            name: _name,\n            medicalHistoryID: msg.sender, // Assuming medical history is stored on-chain\n            exists: true\n        });\n        patientCount++;\n        emit PatientAdded(patients[msg.sender].patientID, _name, msg.sender);\n    }\n\n    function addMedicalRecord(string memory _data, address medicalRecordAdd, address patientAdd) public {\n        require(patients[msg.sender].exists, \"Patient does not exist\");\n        require(stakeholders[msg.sender].role == Roles.DOCTOR || stakeholders[msg.sender].role == Roles.LAB || stakeholders[msg.sender].role == Roles.PATIENT, \"Only doctor, lab person can add records\");\n        \n        MedicalRecord memory mr = MedicalRecord({\n            medicalRecordID: medicalRecordAdd,\n            data: _data,\n            exists: true,\n            hash: uint256(keccak256(abi.encodePacked(patients[msg.sender].medicalHistoryID, _data)))\n        });\n        if (stakeholders[msg.sender].role == Roles.DOCTOR) {\n        medicalRecords[patientAdd][medicalRecordCount] = mr;\n        } else {\n        medicalRecords[msg.sender][medicalRecordCount] = mr;\n        }\n        medicalRecordCount++;\n        emit MedicalRecordAdded(medicalRecords[msg.sender][medicalRecordCount - 1].medicalRecordID, _data, medicalRecords[msg.sender][medicalRecordCount - 1].hash);\n    }\n    \n    function getPatient(address _patientAddress) public view returns (Patient memory) {\n        return patients[_patientAddress];\n    } \n\n    function getMedicalRecord(address _patientAddress) public view returns (MedicalRecord[] memory) {\n        require(patients[_patientAddress].exists, \"Patient does not exist\");\n        return medicalRecords[_patientAddress];\n    }\n\n    function updateMedicalRecord(address _patientAddress, string memory _data, uint256 _medID) public {\n        require(patients[_patientAddress].exists, \"Patient does not exist\");\n        medicalRecords[_patientAddress][_medID].data = _data;\n        medicalRecords[_patientAddress][_medID].hash = uint256(keccak256(abi.encodePacked(patients[_patientAddress].medicalHistoryID, _data)));\n        emit MedicalRecordAdded(medicalRecords[_patientAddress][_medID].medicalRecordID, _data, medicalRecords[_patientAddress][_medID].hash);\n    }\n}\n",
  "sourcePath": "/Users/abhishek/Desktop/Innocodathone/contracts/HealthRecordSystem.sol",
  "compiler": {
    "name": "solc",
    "version": "0.5.16+commit.9c3226ce.Emscripten.clang"
  },
  "schemaVersion": "3.4.16",
  "updatedAt": "2024-05-11T00:18:55.329Z",
  "networkType": "ethereum",
  "devdoc": {
    "methods": {}
  },
  "userdoc": {
    "methods": {}
  }
}